{
	"contracts/Variables.sol": {
		"Variables": {
			"abi": [
				{
					"anonymous": false,
					"inputs": [
						{
							"indexed": false,
							"internalType": "uint256",
							"name": "value",
							"type": "uint256"
						}
					],
					"name": "Added",
					"type": "event"
				},
				{
					"inputs": [
						{
							"internalType": "uint256",
							"name": "_a",
							"type": "uint256"
						},
						{
							"internalType": "uint256",
							"name": "_b",
							"type": "uint256"
						}
					],
					"name": "add",
					"outputs": [
						{
							"internalType": "uint256",
							"name": "",
							"type": "uint256"
						}
					],
					"stateMutability": "pure",
					"type": "function"
				},
				{
					"inputs": [
						{
							"internalType": "uint256",
							"name": "_a",
							"type": "uint256"
						},
						{
							"internalType": "uint256",
							"name": "_b",
							"type": "uint256"
						}
					],
					"name": "addWithEvent",
					"outputs": [
						{
							"internalType": "uint256",
							"name": "",
							"type": "uint256"
						}
					],
					"stateMutability": "nonpayable",
					"type": "function"
				},
				{
					"inputs": [],
					"name": "getGreetingPure",
					"outputs": [
						{
							"internalType": "string",
							"name": "",
							"type": "string"
						}
					],
					"stateMutability": "pure",
					"type": "function"
				},
				{
					"inputs": [],
					"name": "getNameView",
					"outputs": [
						{
							"internalType": "string",
							"name": "",
							"type": "string"
						}
					],
					"stateMutability": "view",
					"type": "function"
				},
				{
					"inputs": [],
					"name": "getNameViewOnlyOwner",
					"outputs": [
						{
							"internalType": "string",
							"name": "",
							"type": "string"
						}
					],
					"stateMutability": "view",
					"type": "function"
				},
				{
					"inputs": [
						{
							"internalType": "string",
							"name": "_name",
							"type": "string"
						}
					],
					"name": "setName",
					"outputs": [],
					"stateMutability": "nonpayable",
					"type": "function"
				},
				{
					"inputs": [],
					"name": "state",
					"outputs": [
						{
							"internalType": "enum Variables.State",
							"name": "",
							"type": "uint8"
						}
					],
					"stateMutability": "view",
					"type": "function"
				}
			],
			"devdoc": {
				"kind": "dev",
				"methods": {},
				"version": 1
			},
			"evm": {
				"assembly": "    /* \"contracts/Variables.sol\":60:1804  contract Variables {... */\n  mstore(0x40, 0x80)\n    /* \"contracts/Variables.sol\":96:97  1 */\n  0x01\n    /* \"contracts/Variables.sol\":86:97  uint8 a = 1 */\n  0x00\n  dup1\n  0x0100\n  exp\n  dup2\n  sload\n  dup2\n  0xff\n  mul\n  not\n  and\n  swap1\n  dup4\n  0xff\n  and\n  mul\n  or\n  swap1\n  sstore\n  pop\n    /* \"contracts/Variables.sol\":160:165  65535 */\n  0xffff\n    /* \"contracts/Variables.sol\":149:165  uint16 b = 65535 */\n  0x00\n  exp(0x0100, 0x01)\n  dup2\n  sload\n  dup2\n  0xffff\n  mul\n  not\n  and\n  swap1\n  dup4\n  0xffff\n  and\n  mul\n  or\n  swap1\n  sstore\n  pop\n    /* \"contracts/Variables.sol\":227:236  100000000 */\n  0x05f5e100\n    /* \"contracts/Variables.sol\":215:236  uint256 c = 100000000 */\n  0x01\n  sstore\n    /* \"contracts/Variables.sol\":297:301  -128 */\n  0xffffffffffffffffffffffffffffffffffffffffffffffffffffffffffffff80\n    /* \"contracts/Variables.sol\":288:301  int8 d = -128 */\n  0x02\n  exp(0x0100, 0x00)\n  dup2\n  sload\n  dup2\n  0xff\n  mul\n  not\n  and\n  swap1\n  dup4\n  0x00\n  signextend\n  0xff\n  and\n  mul\n  or\n  swap1\n  sstore\n  pop\n    /* \"contracts/Variables.sol\":365:370  32767 */\n  0x7fff\n    /* \"contracts/Variables.sol\":355:370  int16 e = 32767 */\n  0x02\n  exp(0x0100, 0x01)\n  dup2\n  sload\n  dup2\n  0xffff\n  mul\n  not\n  and\n  swap1\n  dup4\n  0x01\n  signextend\n  0xffff\n  and\n  mul\n  or\n  swap1\n  sstore\n  pop\n    /* \"contracts/Variables.sol\":438:448  -100000000 */\n  0xfffffffffffffffffffffffffffffffffffffffffffffffffffffffffa0a1f00\n    /* \"contracts/Variables.sol\":427:448  int256 f = -100000000 */\n  0x03\n  sstore\n    /* \"contracts/Variables.sol\":520:524  true */\n  0x01\n    /* \"contracts/Variables.sol\":505:524  bool isReady = true */\n  0x04\n  exp(0x0100, 0x00)\n  dup2\n  sload\n  dup2\n  0xff\n  mul\n  not\n  and\n  swap1\n  dup4\n  iszero\n  iszero\n  mul\n  or\n  swap1\n  sstore\n  pop\n    /* \"contracts/Variables.sol\":549:554  false */\n  0x00\n    /* \"contracts/Variables.sol\":531:554  bool hasBalance = false */\n  0x04\n  exp(0x0100, 0x01)\n  dup2\n  sload\n  dup2\n  0xff\n  mul\n  not\n  and\n  swap1\n  dup4\n  iszero\n  iszero\n  mul\n  or\n  swap1\n  sstore\n  pop\n    /* \"contracts/Variables.sol\":579:621  0x1234567890123456789012345678901234567890 */\n  0x1234567890123456789012345678901234567890\n    /* \"contracts/Variables.sol\":563:621  address owner = 0x1234567890123456789012345678901234567890 */\n  0x04\n  exp(0x0100, 0x02)\n  dup2\n  sload\n  dup2\n  0xffffffffffffffffffffffffffffffffffffffff\n  mul\n  not\n  and\n  swap1\n  dup4\n  0xffffffffffffffffffffffffffffffffffffffff\n  and\n  mul\n  or\n  swap1\n  sstore\n  pop\n    /* \"contracts/Variables.sol\":667:672  owner */\n  0x04\n  0x02\n  swap1\n  sload\n  swap1\n  0x0100\n  exp\n  swap1\n  div\n  0xffffffffffffffffffffffffffffffffffffffff\n  and\n    /* \"contracts/Variables.sol\":628:673  address payable payableOwner = payable(owner) */\n  0x05\n  exp(0x0100, 0x00)\n  dup2\n  sload\n  dup2\n  0xffffffffffffffffffffffffffffffffffffffff\n  mul\n  not\n  and\n  swap1\n  dup4\n  0xffffffffffffffffffffffffffffffffffffffff\n  and\n  mul\n  or\n  swap1\n  sstore\n  pop\n    /* \"contracts/Variables.sol\":682:715  string greeting = \"Hello, World!\" */\n  mload(0x40)\n  dup1\n  0x40\n  add\n  0x40\n  mstore\n  dup1\n  0x0d\n  dup2\n  mstore\n  0x20\n  add\n  0x48656c6c6f2c20576f726c642100000000000000000000000000000000000000\n  dup2\n  mstore\n  pop\n  0x06\n  swap1\n  dup2\n  tag_1\n  swap2\n  swap1\n  tag_2\n  jump\t// in\ntag_1:\n  pop\n    /* \"contracts/Variables.sol\":722:743  string name = \"Alice\" */\n  mload(0x40)\n  dup1\n  0x40\n  add\n  0x40\n  mstore\n  dup1\n  0x05\n  dup2\n  mstore\n  0x20\n  add\n  0x416c696365000000000000000000000000000000000000000000000000000000\n  dup2\n  mstore\n  pop\n  0x07\n  swap1\n  dup2\n  tag_3\n  swap2\n  swap1\n  tag_2\n  jump\t// in\ntag_3:\n  pop\n    /* \"contracts/Variables.sol\":60:1804  contract Variables {... */\n  callvalue\n  dup1\n  iszero\n  tag_4\n  jumpi\n  0x00\n  dup1\n  revert\ntag_4:\n  pop\n  jump(tag_5)\n    /* \"#utility.yul\":7:106   */\ntag_6:\n    /* \"#utility.yul\":59:65   */\n  0x00\n    /* \"#utility.yul\":93:98   */\n  dup2\n    /* \"#utility.yul\":87:99   */\n  mload\n    /* \"#utility.yul\":77:99   */\n  swap1\n  pop\n    /* \"#utility.yul\":7:106   */\n  swap2\n  swap1\n  pop\n  jump\t// out\n    /* \"#utility.yul\":112:292   */\ntag_7:\n    /* \"#utility.yul\":160:237   */\n  0x4e487b7100000000000000000000000000000000000000000000000000000000\n    /* \"#utility.yul\":157:158   */\n  0x00\n    /* \"#utility.yul\":150:238   */\n  mstore\n    /* \"#utility.yul\":257:261   */\n  0x41\n    /* \"#utility.yul\":254:255   */\n  0x04\n    /* \"#utility.yul\":247:262   */\n  mstore\n    /* \"#utility.yul\":281:285   */\n  0x24\n    /* \"#utility.yul\":278:279   */\n  0x00\n    /* \"#utility.yul\":271:286   */\n  revert\n    /* \"#utility.yul\":298:478   */\ntag_8:\n    /* \"#utility.yul\":346:423   */\n  0x4e487b7100000000000000000000000000000000000000000000000000000000\n    /* \"#utility.yul\":343:344   */\n  0x00\n    /* \"#utility.yul\":336:424   */\n  mstore\n    /* \"#utility.yul\":443:447   */\n  0x22\n    /* \"#utility.yul\":440:441   */\n  0x04\n    /* \"#utility.yul\":433:448   */\n  mstore\n    /* \"#utility.yul\":467:471   */\n  0x24\n    /* \"#utility.yul\":464:465   */\n  0x00\n    /* \"#utility.yul\":457:472   */\n  revert\n    /* \"#utility.yul\":484:804   */\ntag_9:\n    /* \"#utility.yul\":528:534   */\n  0x00\n    /* \"#utility.yul\":565:566   */\n  0x02\n    /* \"#utility.yul\":559:563   */\n  dup3\n    /* \"#utility.yul\":555:567   */\n  div\n    /* \"#utility.yul\":545:567   */\n  swap1\n  pop\n    /* \"#utility.yul\":612:613   */\n  0x01\n    /* \"#utility.yul\":606:610   */\n  dup3\n    /* \"#utility.yul\":602:614   */\n  and\n    /* \"#utility.yul\":633:651   */\n  dup1\n    /* \"#utility.yul\":623:704   */\n  tag_31\n  jumpi\n    /* \"#utility.yul\":689:693   */\n  0x7f\n    /* \"#utility.yul\":681:687   */\n  dup3\n    /* \"#utility.yul\":677:694   */\n  and\n    /* \"#utility.yul\":667:694   */\n  swap2\n  pop\n    /* \"#utility.yul\":623:704   */\ntag_31:\n    /* \"#utility.yul\":751:753   */\n  0x20\n    /* \"#utility.yul\":743:749   */\n  dup3\n    /* \"#utility.yul\":740:754   */\n  lt\n    /* \"#utility.yul\":720:738   */\n  dup2\n    /* \"#utility.yul\":717:755   */\n  sub\n    /* \"#utility.yul\":714:798   */\n  tag_32\n  jumpi\n    /* \"#utility.yul\":770:788   */\n  tag_33\n  tag_8\n  jump\t// in\ntag_33:\n    /* \"#utility.yul\":714:798   */\ntag_32:\n    /* \"#utility.yul\":535:804   */\n  pop\n    /* \"#utility.yul\":484:804   */\n  swap2\n  swap1\n  pop\n  jump\t// out\n    /* \"#utility.yul\":810:951   */\ntag_10:\n    /* \"#utility.yul\":859:863   */\n  0x00\n    /* \"#utility.yul\":882:885   */\n  dup2\n    /* \"#utility.yul\":874:885   */\n  swap1\n  pop\n    /* \"#utility.yul\":905:908   */\n  dup2\n    /* \"#utility.yul\":902:903   */\n  0x00\n    /* \"#utility.yul\":895:909   */\n  mstore\n    /* \"#utility.yul\":939:943   */\n  0x20\n    /* \"#utility.yul\":936:937   */\n  0x00\n    /* \"#utility.yul\":926:944   */\n  keccak256\n    /* \"#utility.yul\":918:944   */\n  swap1\n  pop\n    /* \"#utility.yul\":810:951   */\n  swap2\n  swap1\n  pop\n  jump\t// out\n    /* \"#utility.yul\":957:1050   */\ntag_11:\n    /* \"#utility.yul\":994:1000   */\n  0x00\n    /* \"#utility.yul\":1041:1043   */\n  0x20\n    /* \"#utility.yul\":1036:1038   */\n  0x1f\n    /* \"#utility.yul\":1029:1034   */\n  dup4\n    /* \"#utility.yul\":1025:1039   */\n  add\n    /* \"#utility.yul\":1021:1044   */\n  div\n    /* \"#utility.yul\":1011:1044   */\n  swap1\n  pop\n    /* \"#utility.yul\":957:1050   */\n  swap2\n  swap1\n  pop\n  jump\t// out\n    /* \"#utility.yul\":1056:1163   */\ntag_12:\n    /* \"#utility.yul\":1100:1108   */\n  0x00\n    /* \"#utility.yul\":1150:1155   */\n  dup3\n    /* \"#utility.yul\":1144:1148   */\n  dup3\n    /* \"#utility.yul\":1140:1156   */\n  shl\n    /* \"#utility.yul\":1119:1156   */\n  swap1\n  pop\n    /* \"#utility.yul\":1056:1163   */\n  swap3\n  swap2\n  pop\n  pop\n  jump\t// out\n    /* \"#utility.yul\":1169:1562   */\ntag_13:\n    /* \"#utility.yul\":1238:1244   */\n  0x00\n    /* \"#utility.yul\":1288:1289   */\n  0x08\n    /* \"#utility.yul\":1276:1286   */\n  dup4\n    /* \"#utility.yul\":1272:1290   */\n  mul\n    /* \"#utility.yul\":1311:1408   */\n  tag_38\n    /* \"#utility.yul\":1341:1407   */\n  0xffffffffffffffffffffffffffffffffffffffffffffffffffffffffffffffff\n    /* \"#utility.yul\":1330:1339   */\n  dup3\n    /* \"#utility.yul\":1311:1408   */\n  tag_12\n  jump\t// in\ntag_38:\n    /* \"#utility.yul\":1429:1468   */\n  tag_39\n    /* \"#utility.yul\":1459:1467   */\n  dup7\n    /* \"#utility.yul\":1448:1457   */\n  dup4\n    /* \"#utility.yul\":1429:1468   */\n  tag_12\n  jump\t// in\ntag_39:\n    /* \"#utility.yul\":1417:1468   */\n  swap6\n  pop\n    /* \"#utility.yul\":1501:1505   */\n  dup1\n    /* \"#utility.yul\":1497:1506   */\n  not\n    /* \"#utility.yul\":1490:1495   */\n  dup5\n    /* \"#utility.yul\":1486:1507   */\n  and\n    /* \"#utility.yul\":1477:1507   */\n  swap4\n  pop\n    /* \"#utility.yul\":1550:1554   */\n  dup1\n    /* \"#utility.yul\":1540:1548   */\n  dup7\n    /* \"#utility.yul\":1536:1555   */\n  and\n    /* \"#utility.yul\":1529:1534   */\n  dup5\n    /* \"#utility.yul\":1526:1556   */\n  or\n    /* \"#utility.yul\":1516:1556   */\n  swap3\n  pop\n    /* \"#utility.yul\":1245:1562   */\n  pop\n  pop\n    /* \"#utility.yul\":1169:1562   */\n  swap4\n  swap3\n  pop\n  pop\n  pop\n  jump\t// out\n    /* \"#utility.yul\":1568:1645   */\ntag_14:\n    /* \"#utility.yul\":1605:1612   */\n  0x00\n    /* \"#utility.yul\":1634:1639   */\n  dup2\n    /* \"#utility.yul\":1623:1639   */\n  swap1\n  pop\n    /* \"#utility.yul\":1568:1645   */\n  swap2\n  swap1\n  pop\n  jump\t// out\n    /* \"#utility.yul\":1651:1711   */\ntag_15:\n    /* \"#utility.yul\":1679:1682   */\n  0x00\n    /* \"#utility.yul\":1700:1705   */\n  dup2\n    /* \"#utility.yul\":1693:1705   */\n  swap1\n  pop\n    /* \"#utility.yul\":1651:1711   */\n  swap2\n  swap1\n  pop\n  jump\t// out\n    /* \"#utility.yul\":1717:1859   */\ntag_16:\n    /* \"#utility.yul\":1767:1776   */\n  0x00\n    /* \"#utility.yul\":1800:1853   */\n  tag_43\n    /* \"#utility.yul\":1818:1852   */\n  tag_44\n    /* \"#utility.yul\":1827:1851   */\n  tag_45\n    /* \"#utility.yul\":1845:1850   */\n  dup5\n    /* \"#utility.yul\":1827:1851   */\n  tag_14\n  jump\t// in\ntag_45:\n    /* \"#utility.yul\":1818:1852   */\n  tag_15\n  jump\t// in\ntag_44:\n    /* \"#utility.yul\":1800:1853   */\n  tag_14\n  jump\t// in\ntag_43:\n    /* \"#utility.yul\":1787:1853   */\n  swap1\n  pop\n    /* \"#utility.yul\":1717:1859   */\n  swap2\n  swap1\n  pop\n  jump\t// out\n    /* \"#utility.yul\":1865:1940   */\ntag_17:\n    /* \"#utility.yul\":1908:1911   */\n  0x00\n    /* \"#utility.yul\":1929:1934   */\n  dup2\n    /* \"#utility.yul\":1922:1934   */\n  swap1\n  pop\n    /* \"#utility.yul\":1865:1940   */\n  swap2\n  swap1\n  pop\n  jump\t// out\n    /* \"#utility.yul\":1946:2215   */\ntag_18:\n    /* \"#utility.yul\":2056:2095   */\n  tag_48\n    /* \"#utility.yul\":2087:2094   */\n  dup4\n    /* \"#utility.yul\":2056:2095   */\n  tag_16\n  jump\t// in\ntag_48:\n    /* \"#utility.yul\":2117:2208   */\n  tag_49\n    /* \"#utility.yul\":2166:2207   */\n  tag_50\n    /* \"#utility.yul\":2190:2206   */\n  dup3\n    /* \"#utility.yul\":2166:2207   */\n  tag_17\n  jump\t// in\ntag_50:\n    /* \"#utility.yul\":2158:2164   */\n  dup5\n    /* \"#utility.yul\":2151:2155   */\n  dup5\n    /* \"#utility.yul\":2145:2156   */\n  sload\n    /* \"#utility.yul\":2117:2208   */\n  tag_13\n  jump\t// in\ntag_49:\n    /* \"#utility.yul\":2111:2115   */\n  dup3\n    /* \"#utility.yul\":2104:2209   */\n  sstore\n    /* \"#utility.yul\":2022:2215   */\n  pop\n    /* \"#utility.yul\":1946:2215   */\n  pop\n  pop\n  pop\n  jump\t// out\n    /* \"#utility.yul\":2221:2294   */\ntag_19:\n    /* \"#utility.yul\":2266:2269   */\n  0x00\n    /* \"#utility.yul\":2221:2294   */\n  swap1\n  jump\t// out\n    /* \"#utility.yul\":2300:2489   */\ntag_20:\n    /* \"#utility.yul\":2377:2409   */\n  tag_53\n  tag_19\n  jump\t// in\ntag_53:\n    /* \"#utility.yul\":2418:2483   */\n  tag_54\n    /* \"#utility.yul\":2476:2482   */\n  dup2\n    /* \"#utility.yul\":2468:2474   */\n  dup5\n    /* \"#utility.yul\":2462:2466   */\n  dup5\n    /* \"#utility.yul\":2418:2483   */\n  tag_18\n  jump\t// in\ntag_54:\n    /* \"#utility.yul\":2353:2489   */\n  pop\n    /* \"#utility.yul\":2300:2489   */\n  pop\n  pop\n  jump\t// out\n    /* \"#utility.yul\":2495:2681   */\ntag_21:\n    /* \"#utility.yul\":2555:2675   */\ntag_56:\n    /* \"#utility.yul\":2572:2575   */\n  dup2\n    /* \"#utility.yul\":2565:2570   */\n  dup2\n    /* \"#utility.yul\":2562:2576   */\n  lt\n    /* \"#utility.yul\":2555:2675   */\n  iszero\n  tag_58\n  jumpi\n    /* \"#utility.yul\":2626:2665   */\n  tag_59\n    /* \"#utility.yul\":2663:2664   */\n  0x00\n    /* \"#utility.yul\":2656:2661   */\n  dup3\n    /* \"#utility.yul\":2626:2665   */\n  tag_20\n  jump\t// in\ntag_59:\n    /* \"#utility.yul\":2599:2600   */\n  0x01\n    /* \"#utility.yul\":2592:2597   */\n  dup2\n    /* \"#utility.yul\":2588:2601   */\n  add\n    /* \"#utility.yul\":2579:2601   */\n  swap1\n  pop\n    /* \"#utility.yul\":2555:2675   */\n  jump(tag_56)\ntag_58:\n    /* \"#utility.yul\":2495:2681   */\n  pop\n  pop\n  jump\t// out\n    /* \"#utility.yul\":2687:3230   */\ntag_22:\n    /* \"#utility.yul\":2788:2790   */\n  0x1f\n    /* \"#utility.yul\":2783:2786   */\n  dup3\n    /* \"#utility.yul\":2780:2791   */\n  gt\n    /* \"#utility.yul\":2777:3223   */\n  iszero\n  tag_61\n  jumpi\n    /* \"#utility.yul\":2822:2860   */\n  tag_62\n    /* \"#utility.yul\":2854:2859   */\n  dup2\n    /* \"#utility.yul\":2822:2860   */\n  tag_10\n  jump\t// in\ntag_62:\n    /* \"#utility.yul\":2906:2935   */\n  tag_63\n    /* \"#utility.yul\":2924:2934   */\n  dup5\n    /* \"#utility.yul\":2906:2935   */\n  tag_11\n  jump\t// in\ntag_63:\n    /* \"#utility.yul\":2896:2904   */\n  dup2\n    /* \"#utility.yul\":2892:2936   */\n  add\n    /* \"#utility.yul\":3089:3091   */\n  0x20\n    /* \"#utility.yul\":3077:3087   */\n  dup6\n    /* \"#utility.yul\":3074:3092   */\n  lt\n    /* \"#utility.yul\":3071:3120   */\n  iszero\n  tag_64\n  jumpi\n    /* \"#utility.yul\":3110:3118   */\n  dup2\n    /* \"#utility.yul\":3095:3118   */\n  swap1\n  pop\n    /* \"#utility.yul\":3071:3120   */\ntag_64:\n    /* \"#utility.yul\":3133:3213   */\n  tag_65\n    /* \"#utility.yul\":3189:3211   */\n  tag_66\n    /* \"#utility.yul\":3207:3210   */\n  dup6\n    /* \"#utility.yul\":3189:3211   */\n  tag_11\n  jump\t// in\ntag_66:\n    /* \"#utility.yul\":3179:3187   */\n  dup4\n    /* \"#utility.yul\":3175:3212   */\n  add\n    /* \"#utility.yul\":3162:3173   */\n  dup3\n    /* \"#utility.yul\":3133:3213   */\n  tag_21\n  jump\t// in\ntag_65:\n    /* \"#utility.yul\":2792:3223   */\n  pop\n  pop\n    /* \"#utility.yul\":2777:3223   */\ntag_61:\n    /* \"#utility.yul\":2687:3230   */\n  pop\n  pop\n  pop\n  jump\t// out\n    /* \"#utility.yul\":3236:3353   */\ntag_23:\n    /* \"#utility.yul\":3290:3298   */\n  0x00\n    /* \"#utility.yul\":3340:3345   */\n  dup3\n    /* \"#utility.yul\":3334:3338   */\n  dup3\n    /* \"#utility.yul\":3330:3346   */\n  shr\n    /* \"#utility.yul\":3309:3346   */\n  swap1\n  pop\n    /* \"#utility.yul\":3236:3353   */\n  swap3\n  swap2\n  pop\n  pop\n  jump\t// out\n    /* \"#utility.yul\":3359:3528   */\ntag_24:\n    /* \"#utility.yul\":3403:3409   */\n  0x00\n    /* \"#utility.yul\":3436:3487   */\n  tag_69\n    /* \"#utility.yul\":3484:3485   */\n  0x00\n    /* \"#utility.yul\":3480:3486   */\n  not\n    /* \"#utility.yul\":3472:3477   */\n  dup5\n    /* \"#utility.yul\":3469:3470   */\n  0x08\n    /* \"#utility.yul\":3465:3478   */\n  mul\n    /* \"#utility.yul\":3436:3487   */\n  tag_23\n  jump\t// in\ntag_69:\n    /* \"#utility.yul\":3432:3488   */\n  not\n    /* \"#utility.yul\":3517:3521   */\n  dup1\n    /* \"#utility.yul\":3511:3515   */\n  dup4\n    /* \"#utility.yul\":3507:3522   */\n  and\n    /* \"#utility.yul\":3497:3522   */\n  swap2\n  pop\n    /* \"#utility.yul\":3410:3528   */\n  pop\n    /* \"#utility.yul\":3359:3528   */\n  swap3\n  swap2\n  pop\n  pop\n  jump\t// out\n    /* \"#utility.yul\":3533:3828   */\ntag_25:\n    /* \"#utility.yul\":3609:3613   */\n  0x00\n    /* \"#utility.yul\":3755:3784   */\n  tag_71\n    /* \"#utility.yul\":3780:3783   */\n  dup4\n    /* \"#utility.yul\":3774:3778   */\n  dup4\n    /* \"#utility.yul\":3755:3784   */\n  tag_24\n  jump\t// in\ntag_71:\n    /* \"#utility.yul\":3747:3784   */\n  swap2\n  pop\n    /* \"#utility.yul\":3817:3820   */\n  dup3\n    /* \"#utility.yul\":3814:3815   */\n  0x02\n    /* \"#utility.yul\":3810:3821   */\n  mul\n    /* \"#utility.yul\":3804:3808   */\n  dup3\n    /* \"#utility.yul\":3801:3822   */\n  or\n    /* \"#utility.yul\":3793:3822   */\n  swap1\n  pop\n    /* \"#utility.yul\":3533:3828   */\n  swap3\n  swap2\n  pop\n  pop\n  jump\t// out\n    /* \"#utility.yul\":3833:5228   */\ntag_2:\n    /* \"#utility.yul\":3950:3987   */\n  tag_73\n    /* \"#utility.yul\":3983:3986   */\n  dup3\n    /* \"#utility.yul\":3950:3987   */\n  tag_6\n  jump\t// in\ntag_73:\n    /* \"#utility.yul\":4052:4070   */\n  0xffffffffffffffff\n    /* \"#utility.yul\":4044:4050   */\n  dup2\n    /* \"#utility.yul\":4041:4071   */\n  gt\n    /* \"#utility.yul\":4038:4094   */\n  iszero\n  tag_74\n  jumpi\n    /* \"#utility.yul\":4074:4092   */\n  tag_75\n  tag_7\n  jump\t// in\ntag_75:\n    /* \"#utility.yul\":4038:4094   */\ntag_74:\n    /* \"#utility.yul\":4118:4156   */\n  tag_76\n    /* \"#utility.yul\":4150:4154   */\n  dup3\n    /* \"#utility.yul\":4144:4155   */\n  sload\n    /* \"#utility.yul\":4118:4156   */\n  tag_9\n  jump\t// in\ntag_76:\n    /* \"#utility.yul\":4203:4270   */\n  tag_77\n    /* \"#utility.yul\":4263:4269   */\n  dup3\n    /* \"#utility.yul\":4255:4261   */\n  dup3\n    /* \"#utility.yul\":4249:4253   */\n  dup6\n    /* \"#utility.yul\":4203:4270   */\n  tag_22\n  jump\t// in\ntag_77:\n    /* \"#utility.yul\":4297:4298   */\n  0x00\n    /* \"#utility.yul\":4321:4325   */\n  0x20\n    /* \"#utility.yul\":4308:4325   */\n  swap1\n  pop\n    /* \"#utility.yul\":4353:4355   */\n  0x1f\n    /* \"#utility.yul\":4345:4351   */\n  dup4\n    /* \"#utility.yul\":4342:4356   */\n  gt\n    /* \"#utility.yul\":4370:4371   */\n  0x01\n    /* \"#utility.yul\":4365:4983   */\n  dup2\n  eq\n  tag_79\n  jumpi\n    /* \"#utility.yul\":5027:5028   */\n  0x00\n    /* \"#utility.yul\":5044:5050   */\n  dup5\n    /* \"#utility.yul\":5041:5118   */\n  iszero\n  tag_80\n  jumpi\n    /* \"#utility.yul\":5093:5102   */\n  dup3\n    /* \"#utility.yul\":5088:5091   */\n  dup8\n    /* \"#utility.yul\":5084:5103   */\n  add\n    /* \"#utility.yul\":5078:5104   */\n  mload\n    /* \"#utility.yul\":5069:5104   */\n  swap1\n  pop\n    /* \"#utility.yul\":5041:5118   */\ntag_80:\n    /* \"#utility.yul\":5144:5211   */\n  tag_81\n    /* \"#utility.yul\":5204:5210   */\n  dup6\n    /* \"#utility.yul\":5197:5202   */\n  dup3\n    /* \"#utility.yul\":5144:5211   */\n  tag_25\n  jump\t// in\ntag_81:\n    /* \"#utility.yul\":5138:5142   */\n  dup7\n    /* \"#utility.yul\":5131:5212   */\n  sstore\n    /* \"#utility.yul\":5000:5222   */\n  pop\n    /* \"#utility.yul\":4335:5222   */\n  jump(tag_78)\n    /* \"#utility.yul\":4365:4983   */\ntag_79:\n    /* \"#utility.yul\":4417:4421   */\n  0x1f\n    /* \"#utility.yul\":4413:4422   */\n  not\n    /* \"#utility.yul\":4405:4411   */\n  dup5\n    /* \"#utility.yul\":4401:4423   */\n  and\n    /* \"#utility.yul\":4451:4488   */\n  tag_82\n    /* \"#utility.yul\":4483:4487   */\n  dup7\n    /* \"#utility.yul\":4451:4488   */\n  tag_10\n  jump\t// in\ntag_82:\n    /* \"#utility.yul\":4510:4511   */\n  0x00\n    /* \"#utility.yul\":4524:4732   */\ntag_83:\n    /* \"#utility.yul\":4538:4545   */\n  dup3\n    /* \"#utility.yul\":4535:4536   */\n  dup2\n    /* \"#utility.yul\":4532:4546   */\n  lt\n    /* \"#utility.yul\":4524:4732   */\n  iszero\n  tag_85\n  jumpi\n    /* \"#utility.yul\":4617:4626   */\n  dup5\n    /* \"#utility.yul\":4612:4615   */\n  dup10\n    /* \"#utility.yul\":4608:4627   */\n  add\n    /* \"#utility.yul\":4602:4628   */\n  mload\n    /* \"#utility.yul\":4594:4600   */\n  dup3\n    /* \"#utility.yul\":4587:4629   */\n  sstore\n    /* \"#utility.yul\":4668:4669   */\n  0x01\n    /* \"#utility.yul\":4660:4666   */\n  dup3\n    /* \"#utility.yul\":4656:4670   */\n  add\n    /* \"#utility.yul\":4646:4670   */\n  swap2\n  pop\n    /* \"#utility.yul\":4715:4717   */\n  0x20\n    /* \"#utility.yul\":4704:4713   */\n  dup6\n    /* \"#utility.yul\":4700:4718   */\n  add\n    /* \"#utility.yul\":4687:4718   */\n  swap5\n  pop\n    /* \"#utility.yul\":4561:4565   */\n  0x20\n    /* \"#utility.yul\":4558:4559   */\n  dup2\n    /* \"#utility.yul\":4554:4566   */\n  add\n    /* \"#utility.yul\":4549:4566   */\n  swap1\n  pop\n    /* \"#utility.yul\":4524:4732   */\n  jump(tag_83)\ntag_85:\n    /* \"#utility.yul\":4760:4766   */\n  dup7\n    /* \"#utility.yul\":4751:4758   */\n  dup4\n    /* \"#utility.yul\":4748:4767   */\n  lt\n    /* \"#utility.yul\":4745:4924   */\n  iszero\n  tag_86\n  jumpi\n    /* \"#utility.yul\":4818:4827   */\n  dup5\n    /* \"#utility.yul\":4813:4816   */\n  dup10\n    /* \"#utility.yul\":4809:4828   */\n  add\n    /* \"#utility.yul\":4803:4829   */\n  mload\n    /* \"#utility.yul\":4861:4909   */\n  tag_87\n    /* \"#utility.yul\":4903:4907   */\n  0x1f\n    /* \"#utility.yul\":4895:4901   */\n  dup10\n    /* \"#utility.yul\":4891:4908   */\n  and\n    /* \"#utility.yul\":4880:4889   */\n  dup3\n    /* \"#utility.yul\":4861:4909   */\n  tag_24\n  jump\t// in\ntag_87:\n    /* \"#utility.yul\":4853:4859   */\n  dup4\n    /* \"#utility.yul\":4846:4910   */\n  sstore\n    /* \"#utility.yul\":4768:4924   */\n  pop\n    /* \"#utility.yul\":4745:4924   */\ntag_86:\n    /* \"#utility.yul\":4970:4971   */\n  0x01\n    /* \"#utility.yul\":4966:4967   */\n  0x02\n    /* \"#utility.yul\":4958:4964   */\n  dup9\n    /* \"#utility.yul\":4954:4968   */\n  mul\n    /* \"#utility.yul\":4950:4972   */\n  add\n    /* \"#utility.yul\":4944:4948   */\n  dup9\n    /* \"#utility.yul\":4937:4973   */\n  sstore\n    /* \"#utility.yul\":4372:4983   */\n  pop\n  pop\n  pop\n    /* \"#utility.yul\":4335:5222   */\ntag_78:\n  pop\n    /* \"#utility.yul\":3925:5228   */\n  pop\n  pop\n  pop\n    /* \"#utility.yul\":3833:5228   */\n  pop\n  pop\n  jump\t// out\n    /* \"contracts/Variables.sol\":60:1804  contract Variables {... */\ntag_5:\n  dataSize(sub_0)\n  dup1\n  dataOffset(sub_0)\n  0x00\n  codecopy\n  0x00\n  return\nstop\n\nsub_0: assembly {\n        /* \"contracts/Variables.sol\":60:1804  contract Variables {... */\n      mstore(0x40, 0x80)\n      callvalue\n      dup1\n      iszero\n      tag_1\n      jumpi\n      0x00\n      dup1\n      revert\n    tag_1:\n      pop\n      jumpi(tag_2, lt(calldatasize, 0x04))\n      shr(0xe0, calldataload(0x00))\n      dup1\n      0x990df3b4\n      gt\n      tag_10\n      jumpi\n      dup1\n      0x990df3b4\n      eq\n      tag_6\n      jumpi\n      dup1\n      0xc19d93fb\n      eq\n      tag_7\n      jumpi\n      dup1\n      0xc47f0027\n      eq\n      tag_8\n      jumpi\n      dup1\n      0xf3e076b2\n      eq\n      tag_9\n      jumpi\n      jump(tag_2)\n    tag_10:\n      dup1\n      0x2f259a34\n      eq\n      tag_3\n      jumpi\n      dup1\n      0x5c3ee206\n      eq\n      tag_4\n      jumpi\n      dup1\n      0x771602f7\n      eq\n      tag_5\n      jumpi\n    tag_2:\n      0x00\n      dup1\n      revert\n        /* \"contracts/Variables.sol\":1331:1474  function addWithEvent(uint _a, uint _b) public returns (uint) {... */\n    tag_3:\n      tag_11\n      0x04\n      dup1\n      calldatasize\n      sub\n      dup2\n      add\n      swap1\n      tag_12\n      swap2\n      swap1\n      tag_13\n      jump\t// in\n    tag_12:\n      tag_14\n      jump\t// in\n    tag_11:\n      mload(0x40)\n      tag_15\n      swap2\n      swap1\n      tag_16\n      jump\t// in\n    tag_15:\n      mload(0x40)\n      dup1\n      swap2\n      sub\n      swap1\n      return\n        /* \"contracts/Variables.sol\":1482:1571  function getNameView() public view returns (string memory) {... */\n    tag_4:\n      tag_17\n      tag_18\n      jump\t// in\n    tag_17:\n      mload(0x40)\n      tag_19\n      swap2\n      swap1\n      tag_20\n      jump\t// in\n    tag_19:\n      mload(0x40)\n      dup1\n      swap2\n      sub\n      swap1\n      return\n        /* \"contracts/Variables.sol\":1232:1323  function add(uint _a, uint _b) public pure returns (uint) {... */\n    tag_5:\n      tag_21\n      0x04\n      dup1\n      calldatasize\n      sub\n      dup2\n      add\n      swap1\n      tag_22\n      swap2\n      swap1\n      tag_13\n      jump\t// in\n    tag_22:\n      tag_23\n      jump\t// in\n    tag_21:\n      mload(0x40)\n      tag_24\n      swap2\n      swap1\n      tag_16\n      jump\t// in\n    tag_24:\n      mload(0x40)\n      dup1\n      swap2\n      sub\n      swap1\n      return\n        /* \"contracts/Variables.sol\":1693:1801  function getNameViewOnlyOwner() public view onlyOwner returns (string memory) {... */\n    tag_6:\n      tag_25\n      tag_26\n      jump\t// in\n    tag_25:\n      mload(0x40)\n      tag_27\n      swap2\n      swap1\n      tag_20\n      jump\t// in\n    tag_27:\n      mload(0x40)\n      dup1\n      swap2\n      sub\n      swap1\n      return\n        /* \"contracts/Variables.sol\":798:816  State public state */\n    tag_7:\n      tag_28\n      tag_29\n      jump\t// in\n    tag_28:\n      mload(0x40)\n      tag_30\n      swap2\n      swap1\n      tag_31\n      jump\t// in\n    tag_30:\n      mload(0x40)\n      dup1\n      swap2\n      sub\n      swap1\n      return\n        /* \"contracts/Variables.sol\":1017:1093  function setName(string memory _name) public {... */\n    tag_8:\n      tag_32\n      0x04\n      dup1\n      calldatasize\n      sub\n      dup2\n      add\n      swap1\n      tag_33\n      swap2\n      swap1\n      tag_34\n      jump\t// in\n    tag_33:\n      tag_35\n      jump\t// in\n    tag_32:\n      stop\n        /* \"contracts/Variables.sol\":1120:1224  function getGreetingPure() public pure returns (string memory) {... */\n    tag_9:\n      tag_36\n      tag_37\n      jump\t// in\n    tag_36:\n      mload(0x40)\n      tag_38\n      swap2\n      swap1\n      tag_20\n      jump\t// in\n    tag_38:\n      mload(0x40)\n      dup1\n      swap2\n      sub\n      swap1\n      return\n        /* \"contracts/Variables.sol\":1331:1474  function addWithEvent(uint _a, uint _b) public returns (uint) {... */\n    tag_14:\n        /* \"contracts/Variables.sol\":1387:1391  uint */\n      0x00\n        /* \"contracts/Variables.sol\":1404:1411  uint _c */\n      dup1\n        /* \"contracts/Variables.sol\":1419:1421  _b */\n      dup3\n        /* \"contracts/Variables.sol\":1414:1416  _a */\n      dup5\n        /* \"contracts/Variables.sol\":1414:1421  _a + _b */\n      tag_40\n      swap2\n      swap1\n      tag_41\n      jump\t// in\n    tag_40:\n        /* \"contracts/Variables.sol\":1404:1421  uint _c = _a + _b */\n      swap1\n      pop\n        /* \"contracts/Variables.sol\":1437:1446  Added(_c) */\n      0x64a55044d1f2eddebe1b90e8e2853e8e96931cefadbfa0b2ceb34bee36061941\n        /* \"contracts/Variables.sol\":1443:1445  _c */\n      dup2\n        /* \"contracts/Variables.sol\":1437:1446  Added(_c) */\n      mload(0x40)\n      tag_42\n      swap2\n      swap1\n      tag_16\n      jump\t// in\n    tag_42:\n      mload(0x40)\n      dup1\n      swap2\n      sub\n      swap1\n      log1\n        /* \"contracts/Variables.sol\":1464:1466  _c */\n      dup1\n        /* \"contracts/Variables.sol\":1457:1466  return _c */\n      swap2\n      pop\n      pop\n        /* \"contracts/Variables.sol\":1331:1474  function addWithEvent(uint _a, uint _b) public returns (uint) {... */\n      swap3\n      swap2\n      pop\n      pop\n      jump\t// out\n        /* \"contracts/Variables.sol\":1482:1571  function getNameView() public view returns (string memory) {... */\n    tag_18:\n        /* \"contracts/Variables.sol\":1526:1539  string memory */\n      0x60\n        /* \"contracts/Variables.sol\":1559:1563  name */\n      0x07\n        /* \"contracts/Variables.sol\":1552:1563  return name */\n      dup1\n      sload\n      tag_44\n      swap1\n      tag_45\n      jump\t// in\n    tag_44:\n      dup1\n      0x1f\n      add\n      0x20\n      dup1\n      swap2\n      div\n      mul\n      0x20\n      add\n      mload(0x40)\n      swap1\n      dup2\n      add\n      0x40\n      mstore\n      dup1\n      swap3\n      swap2\n      swap1\n      dup2\n      dup2\n      mstore\n      0x20\n      add\n      dup3\n      dup1\n      sload\n      tag_46\n      swap1\n      tag_45\n      jump\t// in\n    tag_46:\n      dup1\n      iszero\n      tag_47\n      jumpi\n      dup1\n      0x1f\n      lt\n      tag_48\n      jumpi\n      0x0100\n      dup1\n      dup4\n      sload\n      div\n      mul\n      dup4\n      mstore\n      swap2\n      0x20\n      add\n      swap2\n      jump(tag_47)\n    tag_48:\n      dup3\n      add\n      swap2\n      swap1\n      0x00\n      mstore\n      keccak256(0x00, 0x20)\n      swap1\n    tag_49:\n      dup2\n      sload\n      dup2\n      mstore\n      swap1\n      0x01\n      add\n      swap1\n      0x20\n      add\n      dup1\n      dup4\n      gt\n      tag_49\n      jumpi\n      dup3\n      swap1\n      sub\n      0x1f\n      and\n      dup3\n      add\n      swap2\n    tag_47:\n      pop\n      pop\n      pop\n      pop\n      pop\n      swap1\n      pop\n        /* \"contracts/Variables.sol\":1482:1571  function getNameView() public view returns (string memory) {... */\n      swap1\n      jump\t// out\n        /* \"contracts/Variables.sol\":1232:1323  function add(uint _a, uint _b) public pure returns (uint) {... */\n    tag_23:\n        /* \"contracts/Variables.sol\":1284:1288  uint */\n      0x00\n        /* \"contracts/Variables.sol\":1313:1315  _b */\n      dup2\n        /* \"contracts/Variables.sol\":1308:1310  _a */\n      dup4\n        /* \"contracts/Variables.sol\":1308:1315  _a + _b */\n      tag_51\n      swap2\n      swap1\n      tag_41\n      jump\t// in\n    tag_51:\n        /* \"contracts/Variables.sol\":1301:1315  return _a + _b */\n      swap1\n      pop\n        /* \"contracts/Variables.sol\":1232:1323  function add(uint _a, uint _b) public pure returns (uint) {... */\n      swap3\n      swap2\n      pop\n      pop\n      jump\t// out\n        /* \"contracts/Variables.sol\":1693:1801  function getNameViewOnlyOwner() public view onlyOwner returns (string memory) {... */\n    tag_26:\n        /* \"contracts/Variables.sol\":1756:1769  string memory */\n      0x60\n        /* \"contracts/Variables.sol\":1633:1638  owner */\n      0x04\n      0x02\n      swap1\n      sload\n      swap1\n      0x0100\n      exp\n      swap1\n      div\n      0xffffffffffffffffffffffffffffffffffffffff\n      and\n        /* \"contracts/Variables.sol\":1619:1638  msg.sender == owner */\n      0xffffffffffffffffffffffffffffffffffffffff\n      and\n        /* \"contracts/Variables.sol\":1619:1629  msg.sender */\n      caller\n        /* \"contracts/Variables.sol\":1619:1638  msg.sender == owner */\n      0xffffffffffffffffffffffffffffffffffffffff\n      and\n      eq\n        /* \"contracts/Variables.sol\":1611:1665  require(msg.sender == owner, \"Not the contract owner\") */\n      tag_53\n      jumpi\n      mload(0x40)\n      0x08c379a000000000000000000000000000000000000000000000000000000000\n      dup2\n      mstore\n      0x04\n      add\n      tag_54\n      swap1\n      tag_55\n      jump\t// in\n    tag_54:\n      mload(0x40)\n      dup1\n      swap2\n      sub\n      swap1\n      revert\n    tag_53:\n        /* \"contracts/Variables.sol\":1789:1793  name */\n      0x07\n        /* \"contracts/Variables.sol\":1782:1793  return name */\n      dup1\n      sload\n      tag_57\n      swap1\n      tag_45\n      jump\t// in\n    tag_57:\n      dup1\n      0x1f\n      add\n      0x20\n      dup1\n      swap2\n      div\n      mul\n      0x20\n      add\n      mload(0x40)\n      swap1\n      dup2\n      add\n      0x40\n      mstore\n      dup1\n      swap3\n      swap2\n      swap1\n      dup2\n      dup2\n      mstore\n      0x20\n      add\n      dup3\n      dup1\n      sload\n      tag_58\n      swap1\n      tag_45\n      jump\t// in\n    tag_58:\n      dup1\n      iszero\n      tag_59\n      jumpi\n      dup1\n      0x1f\n      lt\n      tag_60\n      jumpi\n      0x0100\n      dup1\n      dup4\n      sload\n      div\n      mul\n      dup4\n      mstore\n      swap2\n      0x20\n      add\n      swap2\n      jump(tag_59)\n    tag_60:\n      dup3\n      add\n      swap2\n      swap1\n      0x00\n      mstore\n      keccak256(0x00, 0x20)\n      swap1\n    tag_61:\n      dup2\n      sload\n      dup2\n      mstore\n      swap1\n      0x01\n      add\n      swap1\n      0x20\n      add\n      dup1\n      dup4\n      gt\n      tag_61\n      jumpi\n      dup3\n      swap1\n      sub\n      0x1f\n      and\n      dup3\n      add\n      swap2\n    tag_59:\n      pop\n      pop\n      pop\n      pop\n      pop\n      swap1\n      pop\n        /* \"contracts/Variables.sol\":1693:1801  function getNameViewOnlyOwner() public view onlyOwner returns (string memory) {... */\n      swap1\n      jump\t// out\n        /* \"contracts/Variables.sol\":798:816  State public state */\n    tag_29:\n      0x08\n      0x00\n      swap1\n      sload\n      swap1\n      0x0100\n      exp\n      swap1\n      div\n      0xff\n      and\n      dup2\n      jump\t// out\n        /* \"contracts/Variables.sol\":1017:1093  function setName(string memory _name) public {... */\n    tag_35:\n        /* \"contracts/Variables.sol\":1080:1085  _name */\n      dup1\n        /* \"contracts/Variables.sol\":1073:1077  name */\n      0x07\n        /* \"contracts/Variables.sol\":1073:1085  name = _name */\n      swap1\n      dup2\n      tag_63\n      swap2\n      swap1\n      tag_64\n      jump\t// in\n    tag_63:\n      pop\n        /* \"contracts/Variables.sol\":1017:1093  function setName(string memory _name) public {... */\n      pop\n      jump\t// out\n        /* \"contracts/Variables.sol\":1120:1224  function getGreetingPure() public pure returns (string memory) {... */\n    tag_37:\n        /* \"contracts/Variables.sol\":1168:1181  string memory */\n      0x60\n        /* \"contracts/Variables.sol\":1194:1216  return \"Hello, World!\" */\n      mload(0x40)\n      dup1\n      0x40\n      add\n      0x40\n      mstore\n      dup1\n      0x0d\n      dup2\n      mstore\n      0x20\n      add\n      0x48656c6c6f2c20576f726c642100000000000000000000000000000000000000\n      dup2\n      mstore\n      pop\n      swap1\n      pop\n        /* \"contracts/Variables.sol\":1120:1224  function getGreetingPure() public pure returns (string memory) {... */\n      swap1\n      jump\t// out\n        /* \"#utility.yul\":7:82   */\n    tag_66:\n        /* \"#utility.yul\":40:46   */\n      0x00\n        /* \"#utility.yul\":73:75   */\n      0x40\n        /* \"#utility.yul\":67:76   */\n      mload\n        /* \"#utility.yul\":57:76   */\n      swap1\n      pop\n        /* \"#utility.yul\":7:82   */\n      swap1\n      jump\t// out\n        /* \"#utility.yul\":88:205   */\n    tag_67:\n        /* \"#utility.yul\":197:198   */\n      0x00\n        /* \"#utility.yul\":194:195   */\n      dup1\n        /* \"#utility.yul\":187:199   */\n      revert\n        /* \"#utility.yul\":211:328   */\n    tag_68:\n        /* \"#utility.yul\":320:321   */\n      0x00\n        /* \"#utility.yul\":317:318   */\n      dup1\n        /* \"#utility.yul\":310:322   */\n      revert\n        /* \"#utility.yul\":334:411   */\n    tag_69:\n        /* \"#utility.yul\":371:378   */\n      0x00\n        /* \"#utility.yul\":400:405   */\n      dup2\n        /* \"#utility.yul\":389:405   */\n      swap1\n      pop\n        /* \"#utility.yul\":334:411   */\n      swap2\n      swap1\n      pop\n      jump\t// out\n        /* \"#utility.yul\":417:539   */\n    tag_70:\n        /* \"#utility.yul\":490:514   */\n      tag_117\n        /* \"#utility.yul\":508:513   */\n      dup2\n        /* \"#utility.yul\":490:514   */\n      tag_69\n      jump\t// in\n    tag_117:\n        /* \"#utility.yul\":483:488   */\n      dup2\n        /* \"#utility.yul\":480:515   */\n      eq\n        /* \"#utility.yul\":470:533   */\n      tag_118\n      jumpi\n        /* \"#utility.yul\":529:530   */\n      0x00\n        /* \"#utility.yul\":526:527   */\n      dup1\n        /* \"#utility.yul\":519:531   */\n      revert\n        /* \"#utility.yul\":470:533   */\n    tag_118:\n        /* \"#utility.yul\":417:539   */\n      pop\n      jump\t// out\n        /* \"#utility.yul\":545:684   */\n    tag_71:\n        /* \"#utility.yul\":591:596   */\n      0x00\n        /* \"#utility.yul\":629:635   */\n      dup2\n        /* \"#utility.yul\":616:636   */\n      calldataload\n        /* \"#utility.yul\":607:636   */\n      swap1\n      pop\n        /* \"#utility.yul\":645:678   */\n      tag_120\n        /* \"#utility.yul\":672:677   */\n      dup2\n        /* \"#utility.yul\":645:678   */\n      tag_70\n      jump\t// in\n    tag_120:\n        /* \"#utility.yul\":545:684   */\n      swap3\n      swap2\n      pop\n      pop\n      jump\t// out\n        /* \"#utility.yul\":690:1164   */\n    tag_13:\n        /* \"#utility.yul\":758:764   */\n      0x00\n        /* \"#utility.yul\":766:772   */\n      dup1\n        /* \"#utility.yul\":815:817   */\n      0x40\n        /* \"#utility.yul\":803:812   */\n      dup4\n        /* \"#utility.yul\":794:801   */\n      dup6\n        /* \"#utility.yul\":790:813   */\n      sub\n        /* \"#utility.yul\":786:818   */\n      slt\n        /* \"#utility.yul\":783:902   */\n      iszero\n      tag_122\n      jumpi\n        /* \"#utility.yul\":821:900   */\n      tag_123\n      tag_67\n      jump\t// in\n    tag_123:\n        /* \"#utility.yul\":783:902   */\n    tag_122:\n        /* \"#utility.yul\":941:942   */\n      0x00\n        /* \"#utility.yul\":966:1019   */\n      tag_124\n        /* \"#utility.yul\":1011:1018   */\n      dup6\n        /* \"#utility.yul\":1002:1008   */\n      dup3\n        /* \"#utility.yul\":991:1000   */\n      dup7\n        /* \"#utility.yul\":987:1009   */\n      add\n        /* \"#utility.yul\":966:1019   */\n      tag_71\n      jump\t// in\n    tag_124:\n        /* \"#utility.yul\":956:1019   */\n      swap3\n      pop\n        /* \"#utility.yul\":912:1029   */\n      pop\n        /* \"#utility.yul\":1068:1070   */\n      0x20\n        /* \"#utility.yul\":1094:1147   */\n      tag_125\n        /* \"#utility.yul\":1139:1146   */\n      dup6\n        /* \"#utility.yul\":1130:1136   */\n      dup3\n        /* \"#utility.yul\":1119:1128   */\n      dup7\n        /* \"#utility.yul\":1115:1137   */\n      add\n        /* \"#utility.yul\":1094:1147   */\n      tag_71\n      jump\t// in\n    tag_125:\n        /* \"#utility.yul\":1084:1147   */\n      swap2\n      pop\n        /* \"#utility.yul\":1039:1157   */\n      pop\n        /* \"#utility.yul\":690:1164   */\n      swap3\n      pop\n      swap3\n      swap1\n      pop\n      jump\t// out\n        /* \"#utility.yul\":1170:1288   */\n    tag_72:\n        /* \"#utility.yul\":1257:1281   */\n      tag_127\n        /* \"#utility.yul\":1275:1280   */\n      dup2\n        /* \"#utility.yul\":1257:1281   */\n      tag_69\n      jump\t// in\n    tag_127:\n        /* \"#utility.yul\":1252:1255   */\n      dup3\n        /* \"#utility.yul\":1245:1282   */\n      mstore\n        /* \"#utility.yul\":1170:1288   */\n      pop\n      pop\n      jump\t// out\n        /* \"#utility.yul\":1294:1516   */\n    tag_16:\n        /* \"#utility.yul\":1387:1391   */\n      0x00\n        /* \"#utility.yul\":1425:1427   */\n      0x20\n        /* \"#utility.yul\":1414:1423   */\n      dup3\n        /* \"#utility.yul\":1410:1428   */\n      add\n        /* \"#utility.yul\":1402:1428   */\n      swap1\n      pop\n        /* \"#utility.yul\":1438:1509   */\n      tag_129\n        /* \"#utility.yul\":1506:1507   */\n      0x00\n        /* \"#utility.yul\":1495:1504   */\n      dup4\n        /* \"#utility.yul\":1491:1508   */\n      add\n        /* \"#utility.yul\":1482:1488   */\n      dup5\n        /* \"#utility.yul\":1438:1509   */\n      tag_72\n      jump\t// in\n    tag_129:\n        /* \"#utility.yul\":1294:1516   */\n      swap3\n      swap2\n      pop\n      pop\n      jump\t// out\n        /* \"#utility.yul\":1522:1621   */\n    tag_73:\n        /* \"#utility.yul\":1574:1580   */\n      0x00\n        /* \"#utility.yul\":1608:1613   */\n      dup2\n        /* \"#utility.yul\":1602:1614   */\n      mload\n        /* \"#utility.yul\":1592:1614   */\n      swap1\n      pop\n        /* \"#utility.yul\":1522:1621   */\n      swap2\n      swap1\n      pop\n      jump\t// out\n        /* \"#utility.yul\":1627:1796   */\n    tag_74:\n        /* \"#utility.yul\":1711:1722   */\n      0x00\n        /* \"#utility.yul\":1745:1751   */\n      dup3\n        /* \"#utility.yul\":1740:1743   */\n      dup3\n        /* \"#utility.yul\":1733:1752   */\n      mstore\n        /* \"#utility.yul\":1785:1789   */\n      0x20\n        /* \"#utility.yul\":1780:1783   */\n      dup3\n        /* \"#utility.yul\":1776:1790   */\n      add\n        /* \"#utility.yul\":1761:1790   */\n      swap1\n      pop\n        /* \"#utility.yul\":1627:1796   */\n      swap3\n      swap2\n      pop\n      pop\n      jump\t// out\n        /* \"#utility.yul\":1802:1941   */\n    tag_75:\n        /* \"#utility.yul\":1891:1897   */\n      dup3\n        /* \"#utility.yul\":1886:1889   */\n      dup2\n        /* \"#utility.yul\":1881:1884   */\n      dup4\n        /* \"#utility.yul\":1875:1898   */\n      mcopy\n        /* \"#utility.yul\":1932:1933   */\n      0x00\n        /* \"#utility.yul\":1923:1929   */\n      dup4\n        /* \"#utility.yul\":1918:1921   */\n      dup4\n        /* \"#utility.yul\":1914:1930   */\n      add\n        /* \"#utility.yul\":1907:1934   */\n      mstore\n        /* \"#utility.yul\":1802:1941   */\n      pop\n      pop\n      pop\n      jump\t// out\n        /* \"#utility.yul\":1947:2049   */\n    tag_76:\n        /* \"#utility.yul\":1988:1994   */\n      0x00\n        /* \"#utility.yul\":2039:2041   */\n      0x1f\n        /* \"#utility.yul\":2035:2042   */\n      not\n        /* \"#utility.yul\":2030:2032   */\n      0x1f\n        /* \"#utility.yul\":2023:2028   */\n      dup4\n        /* \"#utility.yul\":2019:2033   */\n      add\n        /* \"#utility.yul\":2015:2043   */\n      and\n        /* \"#utility.yul\":2005:2043   */\n      swap1\n      pop\n        /* \"#utility.yul\":1947:2049   */\n      swap2\n      swap1\n      pop\n      jump\t// out\n        /* \"#utility.yul\":2055:2432   */\n    tag_77:\n        /* \"#utility.yul\":2143:2146   */\n      0x00\n        /* \"#utility.yul\":2171:2210   */\n      tag_135\n        /* \"#utility.yul\":2204:2209   */\n      dup3\n        /* \"#utility.yul\":2171:2210   */\n      tag_73\n      jump\t// in\n    tag_135:\n        /* \"#utility.yul\":2226:2297   */\n      tag_136\n        /* \"#utility.yul\":2290:2296   */\n      dup2\n        /* \"#utility.yul\":2285:2288   */\n      dup6\n        /* \"#utility.yul\":2226:2297   */\n      tag_74\n      jump\t// in\n    tag_136:\n        /* \"#utility.yul\":2219:2297   */\n      swap4\n      pop\n        /* \"#utility.yul\":2306:2371   */\n      tag_137\n        /* \"#utility.yul\":2364:2370   */\n      dup2\n        /* \"#utility.yul\":2359:2362   */\n      dup6\n        /* \"#utility.yul\":2352:2356   */\n      0x20\n        /* \"#utility.yul\":2345:2350   */\n      dup7\n        /* \"#utility.yul\":2341:2357   */\n      add\n        /* \"#utility.yul\":2306:2371   */\n      tag_75\n      jump\t// in\n    tag_137:\n        /* \"#utility.yul\":2396:2425   */\n      tag_138\n        /* \"#utility.yul\":2418:2424   */\n      dup2\n        /* \"#utility.yul\":2396:2425   */\n      tag_76\n      jump\t// in\n    tag_138:\n        /* \"#utility.yul\":2391:2394   */\n      dup5\n        /* \"#utility.yul\":2387:2426   */\n      add\n        /* \"#utility.yul\":2380:2426   */\n      swap2\n      pop\n        /* \"#utility.yul\":2147:2432   */\n      pop\n        /* \"#utility.yul\":2055:2432   */\n      swap3\n      swap2\n      pop\n      pop\n      jump\t// out\n        /* \"#utility.yul\":2438:2751   */\n    tag_20:\n        /* \"#utility.yul\":2551:2555   */\n      0x00\n        /* \"#utility.yul\":2589:2591   */\n      0x20\n        /* \"#utility.yul\":2578:2587   */\n      dup3\n        /* \"#utility.yul\":2574:2592   */\n      add\n        /* \"#utility.yul\":2566:2592   */\n      swap1\n      pop\n        /* \"#utility.yul\":2638:2647   */\n      dup2\n        /* \"#utility.yul\":2632:2636   */\n      dup2\n        /* \"#utility.yul\":2628:2648   */\n      sub\n        /* \"#utility.yul\":2624:2625   */\n      0x00\n        /* \"#utility.yul\":2613:2622   */\n      dup4\n        /* \"#utility.yul\":2609:2626   */\n      add\n        /* \"#utility.yul\":2602:2649   */\n      mstore\n        /* \"#utility.yul\":2666:2744   */\n      tag_140\n        /* \"#utility.yul\":2739:2743   */\n      dup2\n        /* \"#utility.yul\":2730:2736   */\n      dup5\n        /* \"#utility.yul\":2666:2744   */\n      tag_77\n      jump\t// in\n    tag_140:\n        /* \"#utility.yul\":2658:2744   */\n      swap1\n      pop\n        /* \"#utility.yul\":2438:2751   */\n      swap3\n      swap2\n      pop\n      pop\n      jump\t// out\n        /* \"#utility.yul\":2757:2937   */\n    tag_78:\n        /* \"#utility.yul\":2805:2882   */\n      0x4e487b7100000000000000000000000000000000000000000000000000000000\n        /* \"#utility.yul\":2802:2803   */\n      0x00\n        /* \"#utility.yul\":2795:2883   */\n      mstore\n        /* \"#utility.yul\":2902:2906   */\n      0x21\n        /* \"#utility.yul\":2899:2900   */\n      0x04\n        /* \"#utility.yul\":2892:2907   */\n      mstore\n        /* \"#utility.yul\":2926:2930   */\n      0x24\n        /* \"#utility.yul\":2923:2924   */\n      0x00\n        /* \"#utility.yul\":2916:2931   */\n      revert\n        /* \"#utility.yul\":2943:3056   */\n    tag_79:\n        /* \"#utility.yul\":3024:3025   */\n      0x03\n        /* \"#utility.yul\":3017:3022   */\n      dup2\n        /* \"#utility.yul\":3014:3026   */\n      lt\n        /* \"#utility.yul\":3004:3050   */\n      tag_143\n      jumpi\n        /* \"#utility.yul\":3030:3048   */\n      tag_144\n      tag_78\n      jump\t// in\n    tag_144:\n        /* \"#utility.yul\":3004:3050   */\n    tag_143:\n        /* \"#utility.yul\":2943:3056   */\n      pop\n      jump\t// out\n        /* \"#utility.yul\":3062:3189   */\n    tag_80:\n        /* \"#utility.yul\":3107:3114   */\n      0x00\n        /* \"#utility.yul\":3136:3141   */\n      dup2\n        /* \"#utility.yul\":3125:3141   */\n      swap1\n      pop\n        /* \"#utility.yul\":3142:3183   */\n      tag_146\n        /* \"#utility.yul\":3177:3182   */\n      dup3\n        /* \"#utility.yul\":3142:3183   */\n      tag_79\n      jump\t// in\n    tag_146:\n        /* \"#utility.yul\":3062:3189   */\n      swap2\n      swap1\n      pop\n      jump\t// out\n        /* \"#utility.yul\":3195:3322   */\n    tag_81:\n        /* \"#utility.yul\":3251:3260   */\n      0x00\n        /* \"#utility.yul\":3284:3316   */\n      tag_148\n        /* \"#utility.yul\":3310:3315   */\n      dup3\n        /* \"#utility.yul\":3284:3316   */\n      tag_80\n      jump\t// in\n    tag_148:\n        /* \"#utility.yul\":3271:3316   */\n      swap1\n      pop\n        /* \"#utility.yul\":3195:3322   */\n      swap2\n      swap1\n      pop\n      jump\t// out\n        /* \"#utility.yul\":3328:3471   */\n    tag_82:\n        /* \"#utility.yul\":3421:3464   */\n      tag_150\n        /* \"#utility.yul\":3458:3463   */\n      dup2\n        /* \"#utility.yul\":3421:3464   */\n      tag_81\n      jump\t// in\n    tag_150:\n        /* \"#utility.yul\":3416:3419   */\n      dup3\n        /* \"#utility.yul\":3409:3465   */\n      mstore\n        /* \"#utility.yul\":3328:3471   */\n      pop\n      pop\n      jump\t// out\n        /* \"#utility.yul\":3477:3711   */\n    tag_31:\n        /* \"#utility.yul\":3576:3580   */\n      0x00\n        /* \"#utility.yul\":3614:3616   */\n      0x20\n        /* \"#utility.yul\":3603:3612   */\n      dup3\n        /* \"#utility.yul\":3599:3617   */\n      add\n        /* \"#utility.yul\":3591:3617   */\n      swap1\n      pop\n        /* \"#utility.yul\":3627:3704   */\n      tag_152\n        /* \"#utility.yul\":3701:3702   */\n      0x00\n        /* \"#utility.yul\":3690:3699   */\n      dup4\n        /* \"#utility.yul\":3686:3703   */\n      add\n        /* \"#utility.yul\":3677:3683   */\n      dup5\n        /* \"#utility.yul\":3627:3704   */\n      tag_82\n      jump\t// in\n    tag_152:\n        /* \"#utility.yul\":3477:3711   */\n      swap3\n      swap2\n      pop\n      pop\n      jump\t// out\n        /* \"#utility.yul\":3717:3834   */\n    tag_83:\n        /* \"#utility.yul\":3826:3827   */\n      0x00\n        /* \"#utility.yul\":3823:3824   */\n      dup1\n        /* \"#utility.yul\":3816:3828   */\n      revert\n        /* \"#utility.yul\":3840:3957   */\n    tag_84:\n        /* \"#utility.yul\":3949:3950   */\n      0x00\n        /* \"#utility.yul\":3946:3947   */\n      dup1\n        /* \"#utility.yul\":3939:3951   */\n      revert\n        /* \"#utility.yul\":3963:4143   */\n    tag_85:\n        /* \"#utility.yul\":4011:4088   */\n      0x4e487b7100000000000000000000000000000000000000000000000000000000\n        /* \"#utility.yul\":4008:4009   */\n      0x00\n        /* \"#utility.yul\":4001:4089   */\n      mstore\n        /* \"#utility.yul\":4108:4112   */\n      0x41\n        /* \"#utility.yul\":4105:4106   */\n      0x04\n        /* \"#utility.yul\":4098:4113   */\n      mstore\n        /* \"#utility.yul\":4132:4136   */\n      0x24\n        /* \"#utility.yul\":4129:4130   */\n      0x00\n        /* \"#utility.yul\":4122:4137   */\n      revert\n        /* \"#utility.yul\":4149:4430   */\n    tag_86:\n        /* \"#utility.yul\":4232:4259   */\n      tag_157\n        /* \"#utility.yul\":4254:4258   */\n      dup3\n        /* \"#utility.yul\":4232:4259   */\n      tag_76\n      jump\t// in\n    tag_157:\n        /* \"#utility.yul\":4224:4230   */\n      dup2\n        /* \"#utility.yul\":4220:4260   */\n      add\n        /* \"#utility.yul\":4362:4368   */\n      dup2\n        /* \"#utility.yul\":4350:4360   */\n      dup2\n        /* \"#utility.yul\":4347:4369   */\n      lt\n        /* \"#utility.yul\":4326:4344   */\n      0xffffffffffffffff\n        /* \"#utility.yul\":4314:4324   */\n      dup3\n        /* \"#utility.yul\":4311:4345   */\n      gt\n        /* \"#utility.yul\":4308:4370   */\n      or\n        /* \"#utility.yul\":4305:4393   */\n      iszero\n      tag_158\n      jumpi\n        /* \"#utility.yul\":4373:4391   */\n      tag_159\n      tag_85\n      jump\t// in\n    tag_159:\n        /* \"#utility.yul\":4305:4393   */\n    tag_158:\n        /* \"#utility.yul\":4413:4423   */\n      dup1\n        /* \"#utility.yul\":4409:4411   */\n      0x40\n        /* \"#utility.yul\":4402:4424   */\n      mstore\n        /* \"#utility.yul\":4192:4430   */\n      pop\n        /* \"#utility.yul\":4149:4430   */\n      pop\n      pop\n      jump\t// out\n        /* \"#utility.yul\":4436:4565   */\n    tag_87:\n        /* \"#utility.yul\":4470:4476   */\n      0x00\n        /* \"#utility.yul\":4497:4517   */\n      tag_161\n      tag_66\n      jump\t// in\n    tag_161:\n        /* \"#utility.yul\":4487:4517   */\n      swap1\n      pop\n        /* \"#utility.yul\":4526:4559   */\n      tag_162\n        /* \"#utility.yul\":4554:4558   */\n      dup3\n        /* \"#utility.yul\":4546:4552   */\n      dup3\n        /* \"#utility.yul\":4526:4559   */\n      tag_86\n      jump\t// in\n    tag_162:\n        /* \"#utility.yul\":4436:4565   */\n      swap2\n      swap1\n      pop\n      jump\t// out\n        /* \"#utility.yul\":4571:4879   */\n    tag_88:\n        /* \"#utility.yul\":4633:4637   */\n      0x00\n        /* \"#utility.yul\":4723:4741   */\n      0xffffffffffffffff\n        /* \"#utility.yul\":4715:4721   */\n      dup3\n        /* \"#utility.yul\":4712:4742   */\n      gt\n        /* \"#utility.yul\":4709:4765   */\n      iszero\n      tag_164\n      jumpi\n        /* \"#utility.yul\":4745:4763   */\n      tag_165\n      tag_85\n      jump\t// in\n    tag_165:\n        /* \"#utility.yul\":4709:4765   */\n    tag_164:\n        /* \"#utility.yul\":4783:4812   */\n      tag_166\n        /* \"#utility.yul\":4805:4811   */\n      dup3\n        /* \"#utility.yul\":4783:4812   */\n      tag_76\n      jump\t// in\n    tag_166:\n        /* \"#utility.yul\":4775:4812   */\n      swap1\n      pop\n        /* \"#utility.yul\":4867:4871   */\n      0x20\n        /* \"#utility.yul\":4861:4865   */\n      dup2\n        /* \"#utility.yul\":4857:4872   */\n      add\n        /* \"#utility.yul\":4849:4872   */\n      swap1\n      pop\n        /* \"#utility.yul\":4571:4879   */\n      swap2\n      swap1\n      pop\n      jump\t// out\n        /* \"#utility.yul\":4885:5033   */\n    tag_89:\n        /* \"#utility.yul\":4983:4989   */\n      dup3\n        /* \"#utility.yul\":4978:4981   */\n      dup2\n        /* \"#utility.yul\":4973:4976   */\n      dup4\n        /* \"#utility.yul\":4960:4990   */\n      calldatacopy\n        /* \"#utility.yul\":5024:5025   */\n      0x00\n        /* \"#utility.yul\":5015:5021   */\n      dup4\n        /* \"#utility.yul\":5010:5013   */\n      dup4\n        /* \"#utility.yul\":5006:5022   */\n      add\n        /* \"#utility.yul\":4999:5026   */\n      mstore\n        /* \"#utility.yul\":4885:5033   */\n      pop\n      pop\n      pop\n      jump\t// out\n        /* \"#utility.yul\":5039:5464   */\n    tag_90:\n        /* \"#utility.yul\":5117:5122   */\n      0x00\n        /* \"#utility.yul\":5142:5208   */\n      tag_169\n        /* \"#utility.yul\":5158:5207   */\n      tag_170\n        /* \"#utility.yul\":5200:5206   */\n      dup5\n        /* \"#utility.yul\":5158:5207   */\n      tag_88\n      jump\t// in\n    tag_170:\n        /* \"#utility.yul\":5142:5208   */\n      tag_87\n      jump\t// in\n    tag_169:\n        /* \"#utility.yul\":5133:5208   */\n      swap1\n      pop\n        /* \"#utility.yul\":5231:5237   */\n      dup3\n        /* \"#utility.yul\":5224:5229   */\n      dup2\n        /* \"#utility.yul\":5217:5238   */\n      mstore\n        /* \"#utility.yul\":5269:5273   */\n      0x20\n        /* \"#utility.yul\":5262:5267   */\n      dup2\n        /* \"#utility.yul\":5258:5274   */\n      add\n        /* \"#utility.yul\":5307:5310   */\n      dup5\n        /* \"#utility.yul\":5298:5304   */\n      dup5\n        /* \"#utility.yul\":5293:5296   */\n      dup5\n        /* \"#utility.yul\":5289:5305   */\n      add\n        /* \"#utility.yul\":5286:5311   */\n      gt\n        /* \"#utility.yul\":5283:5395   */\n      iszero\n      tag_171\n      jumpi\n        /* \"#utility.yul\":5314:5393   */\n      tag_172\n      tag_84\n      jump\t// in\n    tag_172:\n        /* \"#utility.yul\":5283:5395   */\n    tag_171:\n        /* \"#utility.yul\":5404:5458   */\n      tag_173\n        /* \"#utility.yul\":5451:5457   */\n      dup5\n        /* \"#utility.yul\":5446:5449   */\n      dup3\n        /* \"#utility.yul\":5441:5444   */\n      dup6\n        /* \"#utility.yul\":5404:5458   */\n      tag_89\n      jump\t// in\n    tag_173:\n        /* \"#utility.yul\":5123:5464   */\n      pop\n        /* \"#utility.yul\":5039:5464   */\n      swap4\n      swap3\n      pop\n      pop\n      pop\n      jump\t// out\n        /* \"#utility.yul\":5484:5824   */\n    tag_91:\n        /* \"#utility.yul\":5540:5545   */\n      0x00\n        /* \"#utility.yul\":5589:5592   */\n      dup3\n        /* \"#utility.yul\":5582:5586   */\n      0x1f\n        /* \"#utility.yul\":5574:5580   */\n      dup4\n        /* \"#utility.yul\":5570:5587   */\n      add\n        /* \"#utility.yul\":5566:5593   */\n      slt\n        /* \"#utility.yul\":5556:5678   */\n      tag_175\n      jumpi\n        /* \"#utility.yul\":5597:5676   */\n      tag_176\n      tag_83\n      jump\t// in\n    tag_176:\n        /* \"#utility.yul\":5556:5678   */\n    tag_175:\n        /* \"#utility.yul\":5714:5720   */\n      dup2\n        /* \"#utility.yul\":5701:5721   */\n      calldataload\n        /* \"#utility.yul\":5739:5818   */\n      tag_177\n        /* \"#utility.yul\":5814:5817   */\n      dup5\n        /* \"#utility.yul\":5806:5812   */\n      dup3\n        /* \"#utility.yul\":5799:5803   */\n      0x20\n        /* \"#utility.yul\":5791:5797   */\n      dup7\n        /* \"#utility.yul\":5787:5804   */\n      add\n        /* \"#utility.yul\":5739:5818   */\n      tag_90\n      jump\t// in\n    tag_177:\n        /* \"#utility.yul\":5730:5818   */\n      swap2\n      pop\n        /* \"#utility.yul\":5546:5824   */\n      pop\n        /* \"#utility.yul\":5484:5824   */\n      swap3\n      swap2\n      pop\n      pop\n      jump\t// out\n        /* \"#utility.yul\":5830:6339   */\n    tag_34:\n        /* \"#utility.yul\":5899:5905   */\n      0x00\n        /* \"#utility.yul\":5948:5950   */\n      0x20\n        /* \"#utility.yul\":5936:5945   */\n      dup3\n        /* \"#utility.yul\":5927:5934   */\n      dup5\n        /* \"#utility.yul\":5923:5946   */\n      sub\n        /* \"#utility.yul\":5919:5951   */\n      slt\n        /* \"#utility.yul\":5916:6035   */\n      iszero\n      tag_179\n      jumpi\n        /* \"#utility.yul\":5954:6033   */\n      tag_180\n      tag_67\n      jump\t// in\n    tag_180:\n        /* \"#utility.yul\":5916:6035   */\n    tag_179:\n        /* \"#utility.yul\":6102:6103   */\n      0x00\n        /* \"#utility.yul\":6091:6100   */\n      dup3\n        /* \"#utility.yul\":6087:6104   */\n      add\n        /* \"#utility.yul\":6074:6105   */\n      calldataload\n        /* \"#utility.yul\":6132:6150   */\n      0xffffffffffffffff\n        /* \"#utility.yul\":6124:6130   */\n      dup2\n        /* \"#utility.yul\":6121:6151   */\n      gt\n        /* \"#utility.yul\":6118:6235   */\n      iszero\n      tag_181\n      jumpi\n        /* \"#utility.yul\":6154:6233   */\n      tag_182\n      tag_68\n      jump\t// in\n    tag_182:\n        /* \"#utility.yul\":6118:6235   */\n    tag_181:\n        /* \"#utility.yul\":6259:6322   */\n      tag_183\n        /* \"#utility.yul\":6314:6321   */\n      dup5\n        /* \"#utility.yul\":6305:6311   */\n      dup3\n        /* \"#utility.yul\":6294:6303   */\n      dup6\n        /* \"#utility.yul\":6290:6312   */\n      add\n        /* \"#utility.yul\":6259:6322   */\n      tag_91\n      jump\t// in\n    tag_183:\n        /* \"#utility.yul\":6249:6322   */\n      swap2\n      pop\n        /* \"#utility.yul\":6045:6332   */\n      pop\n        /* \"#utility.yul\":5830:6339   */\n      swap3\n      swap2\n      pop\n      pop\n      jump\t// out\n        /* \"#utility.yul\":6345:6525   */\n    tag_92:\n        /* \"#utility.yul\":6393:6470   */\n      0x4e487b7100000000000000000000000000000000000000000000000000000000\n        /* \"#utility.yul\":6390:6391   */\n      0x00\n        /* \"#utility.yul\":6383:6471   */\n      mstore\n        /* \"#utility.yul\":6490:6494   */\n      0x11\n        /* \"#utility.yul\":6487:6488   */\n      0x04\n        /* \"#utility.yul\":6480:6495   */\n      mstore\n        /* \"#utility.yul\":6514:6518   */\n      0x24\n        /* \"#utility.yul\":6511:6512   */\n      0x00\n        /* \"#utility.yul\":6504:6519   */\n      revert\n        /* \"#utility.yul\":6531:6722   */\n    tag_41:\n        /* \"#utility.yul\":6571:6574   */\n      0x00\n        /* \"#utility.yul\":6590:6610   */\n      tag_186\n        /* \"#utility.yul\":6608:6609   */\n      dup3\n        /* \"#utility.yul\":6590:6610   */\n      tag_69\n      jump\t// in\n    tag_186:\n        /* \"#utility.yul\":6585:6610   */\n      swap2\n      pop\n        /* \"#utility.yul\":6624:6644   */\n      tag_187\n        /* \"#utility.yul\":6642:6643   */\n      dup4\n        /* \"#utility.yul\":6624:6644   */\n      tag_69\n      jump\t// in\n    tag_187:\n        /* \"#utility.yul\":6619:6644   */\n      swap3\n      pop\n        /* \"#utility.yul\":6667:6668   */\n      dup3\n        /* \"#utility.yul\":6664:6665   */\n      dup3\n        /* \"#utility.yul\":6660:6669   */\n      add\n        /* \"#utility.yul\":6653:6669   */\n      swap1\n      pop\n        /* \"#utility.yul\":6688:6691   */\n      dup1\n        /* \"#utility.yul\":6685:6686   */\n      dup3\n        /* \"#utility.yul\":6682:6692   */\n      gt\n        /* \"#utility.yul\":6679:6715   */\n      iszero\n      tag_188\n      jumpi\n        /* \"#utility.yul\":6695:6713   */\n      tag_189\n      tag_92\n      jump\t// in\n    tag_189:\n        /* \"#utility.yul\":6679:6715   */\n    tag_188:\n        /* \"#utility.yul\":6531:6722   */\n      swap3\n      swap2\n      pop\n      pop\n      jump\t// out\n        /* \"#utility.yul\":6728:6908   */\n    tag_93:\n        /* \"#utility.yul\":6776:6853   */\n      0x4e487b7100000000000000000000000000000000000000000000000000000000\n        /* \"#utility.yul\":6773:6774   */\n      0x00\n        /* \"#utility.yul\":6766:6854   */\n      mstore\n        /* \"#utility.yul\":6873:6877   */\n      0x22\n        /* \"#utility.yul\":6870:6871   */\n      0x04\n        /* \"#utility.yul\":6863:6878   */\n      mstore\n        /* \"#utility.yul\":6897:6901   */\n      0x24\n        /* \"#utility.yul\":6894:6895   */\n      0x00\n        /* \"#utility.yul\":6887:6902   */\n      revert\n        /* \"#utility.yul\":6914:7234   */\n    tag_45:\n        /* \"#utility.yul\":6958:6964   */\n      0x00\n        /* \"#utility.yul\":6995:6996   */\n      0x02\n        /* \"#utility.yul\":6989:6993   */\n      dup3\n        /* \"#utility.yul\":6985:6997   */\n      div\n        /* \"#utility.yul\":6975:6997   */\n      swap1\n      pop\n        /* \"#utility.yul\":7042:7043   */\n      0x01\n        /* \"#utility.yul\":7036:7040   */\n      dup3\n        /* \"#utility.yul\":7032:7044   */\n      and\n        /* \"#utility.yul\":7063:7081   */\n      dup1\n        /* \"#utility.yul\":7053:7134   */\n      tag_192\n      jumpi\n        /* \"#utility.yul\":7119:7123   */\n      0x7f\n        /* \"#utility.yul\":7111:7117   */\n      dup3\n        /* \"#utility.yul\":7107:7124   */\n      and\n        /* \"#utility.yul\":7097:7124   */\n      swap2\n      pop\n        /* \"#utility.yul\":7053:7134   */\n    tag_192:\n        /* \"#utility.yul\":7181:7183   */\n      0x20\n        /* \"#utility.yul\":7173:7179   */\n      dup3\n        /* \"#utility.yul\":7170:7184   */\n      lt\n        /* \"#utility.yul\":7150:7168   */\n      dup2\n        /* \"#utility.yul\":7147:7185   */\n      sub\n        /* \"#utility.yul\":7144:7228   */\n      tag_193\n      jumpi\n        /* \"#utility.yul\":7200:7218   */\n      tag_194\n      tag_93\n      jump\t// in\n    tag_194:\n        /* \"#utility.yul\":7144:7228   */\n    tag_193:\n        /* \"#utility.yul\":6965:7234   */\n      pop\n        /* \"#utility.yul\":6914:7234   */\n      swap2\n      swap1\n      pop\n      jump\t// out\n        /* \"#utility.yul\":7240:7412   */\n    tag_94:\n        /* \"#utility.yul\":7380:7404   */\n      0x4e6f742074686520636f6e7472616374206f776e657200000000000000000000\n        /* \"#utility.yul\":7376:7377   */\n      0x00\n        /* \"#utility.yul\":7368:7374   */\n      dup3\n        /* \"#utility.yul\":7364:7378   */\n      add\n        /* \"#utility.yul\":7357:7405   */\n      mstore\n        /* \"#utility.yul\":7240:7412   */\n      pop\n      jump\t// out\n        /* \"#utility.yul\":7418:7784   */\n    tag_95:\n        /* \"#utility.yul\":7560:7563   */\n      0x00\n        /* \"#utility.yul\":7581:7648   */\n      tag_197\n        /* \"#utility.yul\":7645:7647   */\n      0x16\n        /* \"#utility.yul\":7640:7643   */\n      dup4\n        /* \"#utility.yul\":7581:7648   */\n      tag_74\n      jump\t// in\n    tag_197:\n        /* \"#utility.yul\":7574:7648   */\n      swap2\n      pop\n        /* \"#utility.yul\":7657:7750   */\n      tag_198\n        /* \"#utility.yul\":7746:7749   */\n      dup3\n        /* \"#utility.yul\":7657:7750   */\n      tag_94\n      jump\t// in\n    tag_198:\n        /* \"#utility.yul\":7775:7777   */\n      0x20\n        /* \"#utility.yul\":7770:7773   */\n      dup3\n        /* \"#utility.yul\":7766:7778   */\n      add\n        /* \"#utility.yul\":7759:7778   */\n      swap1\n      pop\n        /* \"#utility.yul\":7418:7784   */\n      swap2\n      swap1\n      pop\n      jump\t// out\n        /* \"#utility.yul\":7790:8209   */\n    tag_55:\n        /* \"#utility.yul\":7956:7960   */\n      0x00\n        /* \"#utility.yul\":7994:7996   */\n      0x20\n        /* \"#utility.yul\":7983:7992   */\n      dup3\n        /* \"#utility.yul\":7979:7997   */\n      add\n        /* \"#utility.yul\":7971:7997   */\n      swap1\n      pop\n        /* \"#utility.yul\":8043:8052   */\n      dup2\n        /* \"#utility.yul\":8037:8041   */\n      dup2\n        /* \"#utility.yul\":8033:8053   */\n      sub\n        /* \"#utility.yul\":8029:8030   */\n      0x00\n        /* \"#utility.yul\":8018:8027   */\n      dup4\n        /* \"#utility.yul\":8014:8031   */\n      add\n        /* \"#utility.yul\":8007:8054   */\n      mstore\n        /* \"#utility.yul\":8071:8202   */\n      tag_200\n        /* \"#utility.yul\":8197:8201   */\n      dup2\n        /* \"#utility.yul\":8071:8202   */\n      tag_95\n      jump\t// in\n    tag_200:\n        /* \"#utility.yul\":8063:8202   */\n      swap1\n      pop\n        /* \"#utility.yul\":7790:8209   */\n      swap2\n      swap1\n      pop\n      jump\t// out\n        /* \"#utility.yul\":8215:8356   */\n    tag_96:\n        /* \"#utility.yul\":8264:8268   */\n      0x00\n        /* \"#utility.yul\":8287:8290   */\n      dup2\n        /* \"#utility.yul\":8279:8290   */\n      swap1\n      pop\n        /* \"#utility.yul\":8310:8313   */\n      dup2\n        /* \"#utility.yul\":8307:8308   */\n      0x00\n        /* \"#utility.yul\":8300:8314   */\n      mstore\n        /* \"#utility.yul\":8344:8348   */\n      0x20\n        /* \"#utility.yul\":8341:8342   */\n      0x00\n        /* \"#utility.yul\":8331:8349   */\n      keccak256\n        /* \"#utility.yul\":8323:8349   */\n      swap1\n      pop\n        /* \"#utility.yul\":8215:8356   */\n      swap2\n      swap1\n      pop\n      jump\t// out\n        /* \"#utility.yul\":8362:8455   */\n    tag_97:\n        /* \"#utility.yul\":8399:8405   */\n      0x00\n        /* \"#utility.yul\":8446:8448   */\n      0x20\n        /* \"#utility.yul\":8441:8443   */\n      0x1f\n        /* \"#utility.yul\":8434:8439   */\n      dup4\n        /* \"#utility.yul\":8430:8444   */\n      add\n        /* \"#utility.yul\":8426:8449   */\n      div\n        /* \"#utility.yul\":8416:8449   */\n      swap1\n      pop\n        /* \"#utility.yul\":8362:8455   */\n      swap2\n      swap1\n      pop\n      jump\t// out\n        /* \"#utility.yul\":8461:8568   */\n    tag_98:\n        /* \"#utility.yul\":8505:8513   */\n      0x00\n        /* \"#utility.yul\":8555:8560   */\n      dup3\n        /* \"#utility.yul\":8549:8553   */\n      dup3\n        /* \"#utility.yul\":8545:8561   */\n      shl\n        /* \"#utility.yul\":8524:8561   */\n      swap1\n      pop\n        /* \"#utility.yul\":8461:8568   */\n      swap3\n      swap2\n      pop\n      pop\n      jump\t// out\n        /* \"#utility.yul\":8574:8967   */\n    tag_99:\n        /* \"#utility.yul\":8643:8649   */\n      0x00\n        /* \"#utility.yul\":8693:8694   */\n      0x08\n        /* \"#utility.yul\":8681:8691   */\n      dup4\n        /* \"#utility.yul\":8677:8695   */\n      mul\n        /* \"#utility.yul\":8716:8813   */\n      tag_205\n        /* \"#utility.yul\":8746:8812   */\n      0xffffffffffffffffffffffffffffffffffffffffffffffffffffffffffffffff\n        /* \"#utility.yul\":8735:8744   */\n      dup3\n        /* \"#utility.yul\":8716:8813   */\n      tag_98\n      jump\t// in\n    tag_205:\n        /* \"#utility.yul\":8834:8873   */\n      tag_206\n        /* \"#utility.yul\":8864:8872   */\n      dup7\n        /* \"#utility.yul\":8853:8862   */\n      dup4\n        /* \"#utility.yul\":8834:8873   */\n      tag_98\n      jump\t// in\n    tag_206:\n        /* \"#utility.yul\":8822:8873   */\n      swap6\n      pop\n        /* \"#utility.yul\":8906:8910   */\n      dup1\n        /* \"#utility.yul\":8902:8911   */\n      not\n        /* \"#utility.yul\":8895:8900   */\n      dup5\n        /* \"#utility.yul\":8891:8912   */\n      and\n        /* \"#utility.yul\":8882:8912   */\n      swap4\n      pop\n        /* \"#utility.yul\":8955:8959   */\n      dup1\n        /* \"#utility.yul\":8945:8953   */\n      dup7\n        /* \"#utility.yul\":8941:8960   */\n      and\n        /* \"#utility.yul\":8934:8939   */\n      dup5\n        /* \"#utility.yul\":8931:8961   */\n      or\n        /* \"#utility.yul\":8921:8961   */\n      swap3\n      pop\n        /* \"#utility.yul\":8650:8967   */\n      pop\n      pop\n        /* \"#utility.yul\":8574:8967   */\n      swap4\n      swap3\n      pop\n      pop\n      pop\n      jump\t// out\n        /* \"#utility.yul\":8973:9033   */\n    tag_100:\n        /* \"#utility.yul\":9001:9004   */\n      0x00\n        /* \"#utility.yul\":9022:9027   */\n      dup2\n        /* \"#utility.yul\":9015:9027   */\n      swap1\n      pop\n        /* \"#utility.yul\":8973:9033   */\n      swap2\n      swap1\n      pop\n      jump\t// out\n        /* \"#utility.yul\":9039:9181   */\n    tag_101:\n        /* \"#utility.yul\":9089:9098   */\n      0x00\n        /* \"#utility.yul\":9122:9175   */\n      tag_209\n        /* \"#utility.yul\":9140:9174   */\n      tag_210\n        /* \"#utility.yul\":9149:9173   */\n      tag_211\n        /* \"#utility.yul\":9167:9172   */\n      dup5\n        /* \"#utility.yul\":9149:9173   */\n      tag_69\n      jump\t// in\n    tag_211:\n        /* \"#utility.yul\":9140:9174   */\n      tag_100\n      jump\t// in\n    tag_210:\n        /* \"#utility.yul\":9122:9175   */\n      tag_69\n      jump\t// in\n    tag_209:\n        /* \"#utility.yul\":9109:9175   */\n      swap1\n      pop\n        /* \"#utility.yul\":9039:9181   */\n      swap2\n      swap1\n      pop\n      jump\t// out\n        /* \"#utility.yul\":9187:9262   */\n    tag_102:\n        /* \"#utility.yul\":9230:9233   */\n      0x00\n        /* \"#utility.yul\":9251:9256   */\n      dup2\n        /* \"#utility.yul\":9244:9256   */\n      swap1\n      pop\n        /* \"#utility.yul\":9187:9262   */\n      swap2\n      swap1\n      pop\n      jump\t// out\n        /* \"#utility.yul\":9268:9537   */\n    tag_103:\n        /* \"#utility.yul\":9378:9417   */\n      tag_214\n        /* \"#utility.yul\":9409:9416   */\n      dup4\n        /* \"#utility.yul\":9378:9417   */\n      tag_101\n      jump\t// in\n    tag_214:\n        /* \"#utility.yul\":9439:9530   */\n      tag_215\n        /* \"#utility.yul\":9488:9529   */\n      tag_216\n        /* \"#utility.yul\":9512:9528   */\n      dup3\n        /* \"#utility.yul\":9488:9529   */\n      tag_102\n      jump\t// in\n    tag_216:\n        /* \"#utility.yul\":9480:9486   */\n      dup5\n        /* \"#utility.yul\":9473:9477   */\n      dup5\n        /* \"#utility.yul\":9467:9478   */\n      sload\n        /* \"#utility.yul\":9439:9530   */\n      tag_99\n      jump\t// in\n    tag_215:\n        /* \"#utility.yul\":9433:9437   */\n      dup3\n        /* \"#utility.yul\":9426:9531   */\n      sstore\n        /* \"#utility.yul\":9344:9537   */\n      pop\n        /* \"#utility.yul\":9268:9537   */\n      pop\n      pop\n      pop\n      jump\t// out\n        /* \"#utility.yul\":9543:9616   */\n    tag_104:\n        /* \"#utility.yul\":9588:9591   */\n      0x00\n        /* \"#utility.yul\":9543:9616   */\n      swap1\n      jump\t// out\n        /* \"#utility.yul\":9622:9811   */\n    tag_105:\n        /* \"#utility.yul\":9699:9731   */\n      tag_219\n      tag_104\n      jump\t// in\n    tag_219:\n        /* \"#utility.yul\":9740:9805   */\n      tag_220\n        /* \"#utility.yul\":9798:9804   */\n      dup2\n        /* \"#utility.yul\":9790:9796   */\n      dup5\n        /* \"#utility.yul\":9784:9788   */\n      dup5\n        /* \"#utility.yul\":9740:9805   */\n      tag_103\n      jump\t// in\n    tag_220:\n        /* \"#utility.yul\":9675:9811   */\n      pop\n        /* \"#utility.yul\":9622:9811   */\n      pop\n      pop\n      jump\t// out\n        /* \"#utility.yul\":9817:10003   */\n    tag_106:\n        /* \"#utility.yul\":9877:9997   */\n    tag_222:\n        /* \"#utility.yul\":9894:9897   */\n      dup2\n        /* \"#utility.yul\":9887:9892   */\n      dup2\n        /* \"#utility.yul\":9884:9898   */\n      lt\n        /* \"#utility.yul\":9877:9997   */\n      iszero\n      tag_224\n      jumpi\n        /* \"#utility.yul\":9948:9987   */\n      tag_225\n        /* \"#utility.yul\":9985:9986   */\n      0x00\n        /* \"#utility.yul\":9978:9983   */\n      dup3\n        /* \"#utility.yul\":9948:9987   */\n      tag_105\n      jump\t// in\n    tag_225:\n        /* \"#utility.yul\":9921:9922   */\n      0x01\n        /* \"#utility.yul\":9914:9919   */\n      dup2\n        /* \"#utility.yul\":9910:9923   */\n      add\n        /* \"#utility.yul\":9901:9923   */\n      swap1\n      pop\n        /* \"#utility.yul\":9877:9997   */\n      jump(tag_222)\n    tag_224:\n        /* \"#utility.yul\":9817:10003   */\n      pop\n      pop\n      jump\t// out\n        /* \"#utility.yul\":10009:10552   */\n    tag_107:\n        /* \"#utility.yul\":10110:10112   */\n      0x1f\n        /* \"#utility.yul\":10105:10108   */\n      dup3\n        /* \"#utility.yul\":10102:10113   */\n      gt\n        /* \"#utility.yul\":10099:10545   */\n      iszero\n      tag_227\n      jumpi\n        /* \"#utility.yul\":10144:10182   */\n      tag_228\n        /* \"#utility.yul\":10176:10181   */\n      dup2\n        /* \"#utility.yul\":10144:10182   */\n      tag_96\n      jump\t// in\n    tag_228:\n        /* \"#utility.yul\":10228:10257   */\n      tag_229\n        /* \"#utility.yul\":10246:10256   */\n      dup5\n        /* \"#utility.yul\":10228:10257   */\n      tag_97\n      jump\t// in\n    tag_229:\n        /* \"#utility.yul\":10218:10226   */\n      dup2\n        /* \"#utility.yul\":10214:10258   */\n      add\n        /* \"#utility.yul\":10411:10413   */\n      0x20\n        /* \"#utility.yul\":10399:10409   */\n      dup6\n        /* \"#utility.yul\":10396:10414   */\n      lt\n        /* \"#utility.yul\":10393:10442   */\n      iszero\n      tag_230\n      jumpi\n        /* \"#utility.yul\":10432:10440   */\n      dup2\n        /* \"#utility.yul\":10417:10440   */\n      swap1\n      pop\n        /* \"#utility.yul\":10393:10442   */\n    tag_230:\n        /* \"#utility.yul\":10455:10535   */\n      tag_231\n        /* \"#utility.yul\":10511:10533   */\n      tag_232\n        /* \"#utility.yul\":10529:10532   */\n      dup6\n        /* \"#utility.yul\":10511:10533   */\n      tag_97\n      jump\t// in\n    tag_232:\n        /* \"#utility.yul\":10501:10509   */\n      dup4\n        /* \"#utility.yul\":10497:10534   */\n      add\n        /* \"#utility.yul\":10484:10495   */\n      dup3\n        /* \"#utility.yul\":10455:10535   */\n      tag_106\n      jump\t// in\n    tag_231:\n        /* \"#utility.yul\":10114:10545   */\n      pop\n      pop\n        /* \"#utility.yul\":10099:10545   */\n    tag_227:\n        /* \"#utility.yul\":10009:10552   */\n      pop\n      pop\n      pop\n      jump\t// out\n        /* \"#utility.yul\":10558:10675   */\n    tag_108:\n        /* \"#utility.yul\":10612:10620   */\n      0x00\n        /* \"#utility.yul\":10662:10667   */\n      dup3\n        /* \"#utility.yul\":10656:10660   */\n      dup3\n        /* \"#utility.yul\":10652:10668   */\n      shr\n        /* \"#utility.yul\":10631:10668   */\n      swap1\n      pop\n        /* \"#utility.yul\":10558:10675   */\n      swap3\n      swap2\n      pop\n      pop\n      jump\t// out\n        /* \"#utility.yul\":10681:10850   */\n    tag_109:\n        /* \"#utility.yul\":10725:10731   */\n      0x00\n        /* \"#utility.yul\":10758:10809   */\n      tag_235\n        /* \"#utility.yul\":10806:10807   */\n      0x00\n        /* \"#utility.yul\":10802:10808   */\n      not\n        /* \"#utility.yul\":10794:10799   */\n      dup5\n        /* \"#utility.yul\":10791:10792   */\n      0x08\n        /* \"#utility.yul\":10787:10800   */\n      mul\n        /* \"#utility.yul\":10758:10809   */\n      tag_108\n      jump\t// in\n    tag_235:\n        /* \"#utility.yul\":10754:10810   */\n      not\n        /* \"#utility.yul\":10839:10843   */\n      dup1\n        /* \"#utility.yul\":10833:10837   */\n      dup4\n        /* \"#utility.yul\":10829:10844   */\n      and\n        /* \"#utility.yul\":10819:10844   */\n      swap2\n      pop\n        /* \"#utility.yul\":10732:10850   */\n      pop\n        /* \"#utility.yul\":10681:10850   */\n      swap3\n      swap2\n      pop\n      pop\n      jump\t// out\n        /* \"#utility.yul\":10855:11150   */\n    tag_110:\n        /* \"#utility.yul\":10931:10935   */\n      0x00\n        /* \"#utility.yul\":11077:11106   */\n      tag_237\n        /* \"#utility.yul\":11102:11105   */\n      dup4\n        /* \"#utility.yul\":11096:11100   */\n      dup4\n        /* \"#utility.yul\":11077:11106   */\n      tag_109\n      jump\t// in\n    tag_237:\n        /* \"#utility.yul\":11069:11106   */\n      swap2\n      pop\n        /* \"#utility.yul\":11139:11142   */\n      dup3\n        /* \"#utility.yul\":11136:11137   */\n      0x02\n        /* \"#utility.yul\":11132:11143   */\n      mul\n        /* \"#utility.yul\":11126:11130   */\n      dup3\n        /* \"#utility.yul\":11123:11144   */\n      or\n        /* \"#utility.yul\":11115:11144   */\n      swap1\n      pop\n        /* \"#utility.yul\":10855:11150   */\n      swap3\n      swap2\n      pop\n      pop\n      jump\t// out\n        /* \"#utility.yul\":11155:12550   */\n    tag_64:\n        /* \"#utility.yul\":11272:11309   */\n      tag_239\n        /* \"#utility.yul\":11305:11308   */\n      dup3\n        /* \"#utility.yul\":11272:11309   */\n      tag_73\n      jump\t// in\n    tag_239:\n        /* \"#utility.yul\":11374:11392   */\n      0xffffffffffffffff\n        /* \"#utility.yul\":11366:11372   */\n      dup2\n        /* \"#utility.yul\":11363:11393   */\n      gt\n        /* \"#utility.yul\":11360:11416   */\n      iszero\n      tag_240\n      jumpi\n        /* \"#utility.yul\":11396:11414   */\n      tag_241\n      tag_85\n      jump\t// in\n    tag_241:\n        /* \"#utility.yul\":11360:11416   */\n    tag_240:\n        /* \"#utility.yul\":11440:11478   */\n      tag_242\n        /* \"#utility.yul\":11472:11476   */\n      dup3\n        /* \"#utility.yul\":11466:11477   */\n      sload\n        /* \"#utility.yul\":11440:11478   */\n      tag_45\n      jump\t// in\n    tag_242:\n        /* \"#utility.yul\":11525:11592   */\n      tag_243\n        /* \"#utility.yul\":11585:11591   */\n      dup3\n        /* \"#utility.yul\":11577:11583   */\n      dup3\n        /* \"#utility.yul\":11571:11575   */\n      dup6\n        /* \"#utility.yul\":11525:11592   */\n      tag_107\n      jump\t// in\n    tag_243:\n        /* \"#utility.yul\":11619:11620   */\n      0x00\n        /* \"#utility.yul\":11643:11647   */\n      0x20\n        /* \"#utility.yul\":11630:11647   */\n      swap1\n      pop\n        /* \"#utility.yul\":11675:11677   */\n      0x1f\n        /* \"#utility.yul\":11667:11673   */\n      dup4\n        /* \"#utility.yul\":11664:11678   */\n      gt\n        /* \"#utility.yul\":11692:11693   */\n      0x01\n        /* \"#utility.yul\":11687:12305   */\n      dup2\n      eq\n      tag_245\n      jumpi\n        /* \"#utility.yul\":12349:12350   */\n      0x00\n        /* \"#utility.yul\":12366:12372   */\n      dup5\n        /* \"#utility.yul\":12363:12440   */\n      iszero\n      tag_246\n      jumpi\n        /* \"#utility.yul\":12415:12424   */\n      dup3\n        /* \"#utility.yul\":12410:12413   */\n      dup8\n        /* \"#utility.yul\":12406:12425   */\n      add\n        /* \"#utility.yul\":12400:12426   */\n      mload\n        /* \"#utility.yul\":12391:12426   */\n      swap1\n      pop\n        /* \"#utility.yul\":12363:12440   */\n    tag_246:\n        /* \"#utility.yul\":12466:12533   */\n      tag_247\n        /* \"#utility.yul\":12526:12532   */\n      dup6\n        /* \"#utility.yul\":12519:12524   */\n      dup3\n        /* \"#utility.yul\":12466:12533   */\n      tag_110\n      jump\t// in\n    tag_247:\n        /* \"#utility.yul\":12460:12464   */\n      dup7\n        /* \"#utility.yul\":12453:12534   */\n      sstore\n        /* \"#utility.yul\":12322:12544   */\n      pop\n        /* \"#utility.yul\":11657:12544   */\n      jump(tag_244)\n        /* \"#utility.yul\":11687:12305   */\n    tag_245:\n        /* \"#utility.yul\":11739:11743   */\n      0x1f\n        /* \"#utility.yul\":11735:11744   */\n      not\n        /* \"#utility.yul\":11727:11733   */\n      dup5\n        /* \"#utility.yul\":11723:11745   */\n      and\n        /* \"#utility.yul\":11773:11810   */\n      tag_248\n        /* \"#utility.yul\":11805:11809   */\n      dup7\n        /* \"#utility.yul\":11773:11810   */\n      tag_96\n      jump\t// in\n    tag_248:\n        /* \"#utility.yul\":11832:11833   */\n      0x00\n        /* \"#utility.yul\":11846:12054   */\n    tag_249:\n        /* \"#utility.yul\":11860:11867   */\n      dup3\n        /* \"#utility.yul\":11857:11858   */\n      dup2\n        /* \"#utility.yul\":11854:11868   */\n      lt\n        /* \"#utility.yul\":11846:12054   */\n      iszero\n      tag_251\n      jumpi\n        /* \"#utility.yul\":11939:11948   */\n      dup5\n        /* \"#utility.yul\":11934:11937   */\n      dup10\n        /* \"#utility.yul\":11930:11949   */\n      add\n        /* \"#utility.yul\":11924:11950   */\n      mload\n        /* \"#utility.yul\":11916:11922   */\n      dup3\n        /* \"#utility.yul\":11909:11951   */\n      sstore\n        /* \"#utility.yul\":11990:11991   */\n      0x01\n        /* \"#utility.yul\":11982:11988   */\n      dup3\n        /* \"#utility.yul\":11978:11992   */\n      add\n        /* \"#utility.yul\":11968:11992   */\n      swap2\n      pop\n        /* \"#utility.yul\":12037:12039   */\n      0x20\n        /* \"#utility.yul\":12026:12035   */\n      dup6\n        /* \"#utility.yul\":12022:12040   */\n      add\n        /* \"#utility.yul\":12009:12040   */\n      swap5\n      pop\n        /* \"#utility.yul\":11883:11887   */\n      0x20\n        /* \"#utility.yul\":11880:11881   */\n      dup2\n        /* \"#utility.yul\":11876:11888   */\n      add\n        /* \"#utility.yul\":11871:11888   */\n      swap1\n      pop\n        /* \"#utility.yul\":11846:12054   */\n      jump(tag_249)\n    tag_251:\n        /* \"#utility.yul\":12082:12088   */\n      dup7\n        /* \"#utility.yul\":12073:12080   */\n      dup4\n        /* \"#utility.yul\":12070:12089   */\n      lt\n        /* \"#utility.yul\":12067:12246   */\n      iszero\n      tag_252\n      jumpi\n        /* \"#utility.yul\":12140:12149   */\n      dup5\n        /* \"#utility.yul\":12135:12138   */\n      dup10\n        /* \"#utility.yul\":12131:12150   */\n      add\n        /* \"#utility.yul\":12125:12151   */\n      mload\n        /* \"#utility.yul\":12183:12231   */\n      tag_253\n        /* \"#utility.yul\":12225:12229   */\n      0x1f\n        /* \"#utility.yul\":12217:12223   */\n      dup10\n        /* \"#utility.yul\":12213:12230   */\n      and\n        /* \"#utility.yul\":12202:12211   */\n      dup3\n        /* \"#utility.yul\":12183:12231   */\n      tag_109\n      jump\t// in\n    tag_253:\n        /* \"#utility.yul\":12175:12181   */\n      dup4\n        /* \"#utility.yul\":12168:12232   */\n      sstore\n        /* \"#utility.yul\":12090:12246   */\n      pop\n        /* \"#utility.yul\":12067:12246   */\n    tag_252:\n        /* \"#utility.yul\":12292:12293   */\n      0x01\n        /* \"#utility.yul\":12288:12289   */\n      0x02\n        /* \"#utility.yul\":12280:12286   */\n      dup9\n        /* \"#utility.yul\":12276:12290   */\n      mul\n        /* \"#utility.yul\":12272:12294   */\n      add\n        /* \"#utility.yul\":12266:12270   */\n      dup9\n        /* \"#utility.yul\":12259:12295   */\n      sstore\n        /* \"#utility.yul\":11694:12305   */\n      pop\n      pop\n      pop\n        /* \"#utility.yul\":11657:12544   */\n    tag_244:\n      pop\n        /* \"#utility.yul\":11247:12550   */\n      pop\n      pop\n      pop\n        /* \"#utility.yul\":11155:12550   */\n      pop\n      pop\n      jump\t// out\n\n    auxdata: 0xa2646970667358221220029d452683693e4b8ce3689a05ea634506c5570595d399e3af2c22452a6ea23664736f6c634300081a0033\n}\n",
				"bytecode": {
					"linkReferences": {},
					"object": "608060405260015f806101000a81548160ff021916908360ff16021790555061ffff5f60016101000a81548161ffff021916908361ffff1602179055506305f5e1006001557fffffffffffffffffffffffffffffffffffffffffffffffffffffffffffffff8060025f6101000a81548160ff02191690835f0b60ff160217905550617fff600260016101000a81548161ffff021916908360010b61ffff1602179055507ffffffffffffffffffffffffffffffffffffffffffffffffffffffffffa0a1f00600355600160045f6101000a81548160ff0219169083151502179055505f600460016101000a81548160ff021916908315150217905550731234567890123456789012345678901234567890600460026101000a81548173ffffffffffffffffffffffffffffffffffffffff021916908373ffffffffffffffffffffffffffffffffffffffff160217905550600460029054906101000a900473ffffffffffffffffffffffffffffffffffffffff1660055f6101000a81548173ffffffffffffffffffffffffffffffffffffffff021916908373ffffffffffffffffffffffffffffffffffffffff1602179055506040518060400160405280600d81526020017f48656c6c6f2c20576f726c642100000000000000000000000000000000000000815250600690816101f59190610486565b506040518060400160405280600581526020017f416c6963650000000000000000000000000000000000000000000000000000008152506007908161023a9190610486565b50348015610246575f80fd5b50610555565b5f81519050919050565b7f4e487b71000000000000000000000000000000000000000000000000000000005f52604160045260245ffd5b7f4e487b71000000000000000000000000000000000000000000000000000000005f52602260045260245ffd5b5f60028204905060018216806102c757607f821691505b6020821081036102da576102d9610283565b5b50919050565b5f819050815f5260205f209050919050565b5f6020601f8301049050919050565b5f82821b905092915050565b5f6008830261033c7fffffffffffffffffffffffffffffffffffffffffffffffffffffffffffffffff82610301565b6103468683610301565b95508019841693508086168417925050509392505050565b5f819050919050565b5f819050919050565b5f61038a6103856103808461035e565b610367565b61035e565b9050919050565b5f819050919050565b6103a383610370565b6103b76103af82610391565b84845461030d565b825550505050565b5f90565b6103cb6103bf565b6103d681848461039a565b505050565b5b818110156103f9576103ee5f826103c3565b6001810190506103dc565b5050565b601f82111561043e5761040f816102e0565b610418846102f2565b81016020851015610427578190505b61043b610433856102f2565b8301826103db565b50505b505050565b5f82821c905092915050565b5f61045e5f1984600802610443565b1980831691505092915050565b5f610476838361044f565b9150826002028217905092915050565b61048f8261024c565b67ffffffffffffffff8111156104a8576104a7610256565b5b6104b282546102b0565b6104bd8282856103fd565b5f60209050601f8311600181146104ee575f84156104dc578287015190505b6104e6858261046b565b86555061054d565b601f1984166104fc866102e0565b5f5b82811015610523578489015182556001820191506020850194506020810190506104fe565b86831015610540578489015161053c601f89168261044f565b8355505b6001600288020188555050505b505050505050565b610aeb806105625f395ff3fe608060405234801561000f575f80fd5b506004361061007b575f3560e01c8063990df3b411610059578063990df3b4146100fd578063c19d93fb1461011b578063c47f002714610139578063f3e076b2146101555761007b565b80632f259a341461007f5780635c3ee206146100af578063771602f7146100cd575b5f80fd5b6100996004803603810190610094919061042f565b610173565b6040516100a6919061047c565b60405180910390f35b6100b76101c4565b6040516100c49190610505565b60405180910390f35b6100e760048036038101906100e2919061042f565b610254565b6040516100f4919061047c565b60405180910390f35b610105610269565b6040516101129190610505565b60405180910390f35b610123610389565b6040516101309190610598565b60405180910390f35b610153600480360381019061014e91906106dd565b61039b565b005b61015d6103ae565b60405161016a9190610505565b60405180910390f35b5f8082846101819190610751565b90507f64a55044d1f2eddebe1b90e8e2853e8e96931cefadbfa0b2ceb34bee36061941816040516101b2919061047c565b60405180910390a18091505092915050565b6060600780546101d3906107b1565b80601f01602080910402602001604051908101604052809291908181526020018280546101ff906107b1565b801561024a5780601f106102215761010080835404028352916020019161024a565b820191905f5260205f20905b81548152906001019060200180831161022d57829003601f168201915b5050505050905090565b5f81836102619190610751565b905092915050565b6060600460029054906101000a900473ffffffffffffffffffffffffffffffffffffffff1673ffffffffffffffffffffffffffffffffffffffff163373ffffffffffffffffffffffffffffffffffffffff16146102fb576040517f08c379a00000000000000000000000000000000000000000000000000000000081526004016102f29061082b565b60405180910390fd5b60078054610308906107b1565b80601f0160208091040260200160405190810160405280929190818152602001828054610334906107b1565b801561037f5780601f106103565761010080835404028352916020019161037f565b820191905f5260205f20905b81548152906001019060200180831161036257829003601f168201915b5050505050905090565b60085f9054906101000a900460ff1681565b80600790816103aa91906109e6565b5050565b60606040518060400160405280600d81526020017f48656c6c6f2c20576f726c642100000000000000000000000000000000000000815250905090565b5f604051905090565b5f80fd5b5f80fd5b5f819050919050565b61040e816103fc565b8114610418575f80fd5b50565b5f8135905061042981610405565b92915050565b5f8060408385031215610445576104446103f4565b5b5f6104528582860161041b565b92505060206104638582860161041b565b9150509250929050565b610476816103fc565b82525050565b5f60208201905061048f5f83018461046d565b92915050565b5f81519050919050565b5f82825260208201905092915050565b8281835e5f83830152505050565b5f601f19601f8301169050919050565b5f6104d782610495565b6104e1818561049f565b93506104f18185602086016104af565b6104fa816104bd565b840191505092915050565b5f6020820190508181035f83015261051d81846104cd565b905092915050565b7f4e487b71000000000000000000000000000000000000000000000000000000005f52602160045260245ffd5b6003811061056357610562610525565b5b50565b5f81905061057382610552565b919050565b5f61058282610566565b9050919050565b61059281610578565b82525050565b5f6020820190506105ab5f830184610589565b92915050565b5f80fd5b5f80fd5b7f4e487b71000000000000000000000000000000000000000000000000000000005f52604160045260245ffd5b6105ef826104bd565b810181811067ffffffffffffffff8211171561060e5761060d6105b9565b5b80604052505050565b5f6106206103eb565b905061062c82826105e6565b919050565b5f67ffffffffffffffff82111561064b5761064a6105b9565b5b610654826104bd565b9050602081019050919050565b828183375f83830152505050565b5f61068161067c84610631565b610617565b90508281526020810184848401111561069d5761069c6105b5565b5b6106a8848285610661565b509392505050565b5f82601f8301126106c4576106c36105b1565b5b81356106d484826020860161066f565b91505092915050565b5f602082840312156106f2576106f16103f4565b5b5f82013567ffffffffffffffff81111561070f5761070e6103f8565b5b61071b848285016106b0565b91505092915050565b7f4e487b71000000000000000000000000000000000000000000000000000000005f52601160045260245ffd5b5f61075b826103fc565b9150610766836103fc565b925082820190508082111561077e5761077d610724565b5b92915050565b7f4e487b71000000000000000000000000000000000000000000000000000000005f52602260045260245ffd5b5f60028204905060018216806107c857607f821691505b6020821081036107db576107da610784565b5b50919050565b7f4e6f742074686520636f6e7472616374206f776e6572000000000000000000005f82015250565b5f61081560168361049f565b9150610820826107e1565b602082019050919050565b5f6020820190508181035f83015261084281610809565b9050919050565b5f819050815f5260205f209050919050565b5f6020601f8301049050919050565b5f82821b905092915050565b5f600883026108a57fffffffffffffffffffffffffffffffffffffffffffffffffffffffffffffffff8261086a565b6108af868361086a565b95508019841693508086168417925050509392505050565b5f819050919050565b5f6108ea6108e56108e0846103fc565b6108c7565b6103fc565b9050919050565b5f819050919050565b610903836108d0565b61091761090f826108f1565b848454610876565b825550505050565b5f90565b61092b61091f565b6109368184846108fa565b505050565b5b818110156109595761094e5f82610923565b60018101905061093c565b5050565b601f82111561099e5761096f81610849565b6109788461085b565b81016020851015610987578190505b61099b6109938561085b565b83018261093b565b50505b505050565b5f82821c905092915050565b5f6109be5f19846008026109a3565b1980831691505092915050565b5f6109d683836109af565b9150826002028217905092915050565b6109ef82610495565b67ffffffffffffffff811115610a0857610a076105b9565b5b610a1282546107b1565b610a1d82828561095d565b5f60209050601f831160018114610a4e575f8415610a3c578287015190505b610a4685826109cb565b865550610aad565b601f198416610a5c86610849565b5f5b82811015610a8357848901518255600182019150602085019450602081019050610a5e565b86831015610aa05784890151610a9c601f8916826109af565b8355505b6001600288020188555050505b50505050505056fea2646970667358221220029d452683693e4b8ce3689a05ea634506c5570595d399e3af2c22452a6ea23664736f6c634300081a0033",
					"opcodes": "PUSH1 0x80 PUSH1 0x40 MSTORE PUSH1 0x1 PUSH0 DUP1 PUSH2 0x100 EXP DUP2 SLOAD DUP2 PUSH1 0xFF MUL NOT AND SWAP1 DUP4 PUSH1 0xFF AND MUL OR SWAP1 SSTORE POP PUSH2 0xFFFF PUSH0 PUSH1 0x1 PUSH2 0x100 EXP DUP2 SLOAD DUP2 PUSH2 0xFFFF MUL NOT AND SWAP1 DUP4 PUSH2 0xFFFF AND MUL OR SWAP1 SSTORE POP PUSH4 0x5F5E100 PUSH1 0x1 SSTORE PUSH32 0xFFFFFFFFFFFFFFFFFFFFFFFFFFFFFFFFFFFFFFFFFFFFFFFFFFFFFFFFFFFFFF80 PUSH1 0x2 PUSH0 PUSH2 0x100 EXP DUP2 SLOAD DUP2 PUSH1 0xFF MUL NOT AND SWAP1 DUP4 PUSH0 SIGNEXTEND PUSH1 0xFF AND MUL OR SWAP1 SSTORE POP PUSH2 0x7FFF PUSH1 0x2 PUSH1 0x1 PUSH2 0x100 EXP DUP2 SLOAD DUP2 PUSH2 0xFFFF MUL NOT AND SWAP1 DUP4 PUSH1 0x1 SIGNEXTEND PUSH2 0xFFFF AND MUL OR SWAP1 SSTORE POP PUSH32 0xFFFFFFFFFFFFFFFFFFFFFFFFFFFFFFFFFFFFFFFFFFFFFFFFFFFFFFFFFA0A1F00 PUSH1 0x3 SSTORE PUSH1 0x1 PUSH1 0x4 PUSH0 PUSH2 0x100 EXP DUP2 SLOAD DUP2 PUSH1 0xFF MUL NOT AND SWAP1 DUP4 ISZERO ISZERO MUL OR SWAP1 SSTORE POP PUSH0 PUSH1 0x4 PUSH1 0x1 PUSH2 0x100 EXP DUP2 SLOAD DUP2 PUSH1 0xFF MUL NOT AND SWAP1 DUP4 ISZERO ISZERO MUL OR SWAP1 SSTORE POP PUSH20 0x1234567890123456789012345678901234567890 PUSH1 0x4 PUSH1 0x2 PUSH2 0x100 EXP DUP2 SLOAD DUP2 PUSH20 0xFFFFFFFFFFFFFFFFFFFFFFFFFFFFFFFFFFFFFFFF MUL NOT AND SWAP1 DUP4 PUSH20 0xFFFFFFFFFFFFFFFFFFFFFFFFFFFFFFFFFFFFFFFF AND MUL OR SWAP1 SSTORE POP PUSH1 0x4 PUSH1 0x2 SWAP1 SLOAD SWAP1 PUSH2 0x100 EXP SWAP1 DIV PUSH20 0xFFFFFFFFFFFFFFFFFFFFFFFFFFFFFFFFFFFFFFFF AND PUSH1 0x5 PUSH0 PUSH2 0x100 EXP DUP2 SLOAD DUP2 PUSH20 0xFFFFFFFFFFFFFFFFFFFFFFFFFFFFFFFFFFFFFFFF MUL NOT AND SWAP1 DUP4 PUSH20 0xFFFFFFFFFFFFFFFFFFFFFFFFFFFFFFFFFFFFFFFF AND MUL OR SWAP1 SSTORE POP PUSH1 0x40 MLOAD DUP1 PUSH1 0x40 ADD PUSH1 0x40 MSTORE DUP1 PUSH1 0xD DUP2 MSTORE PUSH1 0x20 ADD PUSH32 0x48656C6C6F2C20576F726C642100000000000000000000000000000000000000 DUP2 MSTORE POP PUSH1 0x6 SWAP1 DUP2 PUSH2 0x1F5 SWAP2 SWAP1 PUSH2 0x486 JUMP JUMPDEST POP PUSH1 0x40 MLOAD DUP1 PUSH1 0x40 ADD PUSH1 0x40 MSTORE DUP1 PUSH1 0x5 DUP2 MSTORE PUSH1 0x20 ADD PUSH32 0x416C696365000000000000000000000000000000000000000000000000000000 DUP2 MSTORE POP PUSH1 0x7 SWAP1 DUP2 PUSH2 0x23A SWAP2 SWAP1 PUSH2 0x486 JUMP JUMPDEST POP CALLVALUE DUP1 ISZERO PUSH2 0x246 JUMPI PUSH0 DUP1 REVERT JUMPDEST POP PUSH2 0x555 JUMP JUMPDEST PUSH0 DUP2 MLOAD SWAP1 POP SWAP2 SWAP1 POP JUMP JUMPDEST PUSH32 0x4E487B7100000000000000000000000000000000000000000000000000000000 PUSH0 MSTORE PUSH1 0x41 PUSH1 0x4 MSTORE PUSH1 0x24 PUSH0 REVERT JUMPDEST PUSH32 0x4E487B7100000000000000000000000000000000000000000000000000000000 PUSH0 MSTORE PUSH1 0x22 PUSH1 0x4 MSTORE PUSH1 0x24 PUSH0 REVERT JUMPDEST PUSH0 PUSH1 0x2 DUP3 DIV SWAP1 POP PUSH1 0x1 DUP3 AND DUP1 PUSH2 0x2C7 JUMPI PUSH1 0x7F DUP3 AND SWAP2 POP JUMPDEST PUSH1 0x20 DUP3 LT DUP2 SUB PUSH2 0x2DA JUMPI PUSH2 0x2D9 PUSH2 0x283 JUMP JUMPDEST JUMPDEST POP SWAP2 SWAP1 POP JUMP JUMPDEST PUSH0 DUP2 SWAP1 POP DUP2 PUSH0 MSTORE PUSH1 0x20 PUSH0 KECCAK256 SWAP1 POP SWAP2 SWAP1 POP JUMP JUMPDEST PUSH0 PUSH1 0x20 PUSH1 0x1F DUP4 ADD DIV SWAP1 POP SWAP2 SWAP1 POP JUMP JUMPDEST PUSH0 DUP3 DUP3 SHL SWAP1 POP SWAP3 SWAP2 POP POP JUMP JUMPDEST PUSH0 PUSH1 0x8 DUP4 MUL PUSH2 0x33C PUSH32 0xFFFFFFFFFFFFFFFFFFFFFFFFFFFFFFFFFFFFFFFFFFFFFFFFFFFFFFFFFFFFFFFF DUP3 PUSH2 0x301 JUMP JUMPDEST PUSH2 0x346 DUP7 DUP4 PUSH2 0x301 JUMP JUMPDEST SWAP6 POP DUP1 NOT DUP5 AND SWAP4 POP DUP1 DUP7 AND DUP5 OR SWAP3 POP POP POP SWAP4 SWAP3 POP POP POP JUMP JUMPDEST PUSH0 DUP2 SWAP1 POP SWAP2 SWAP1 POP JUMP JUMPDEST PUSH0 DUP2 SWAP1 POP SWAP2 SWAP1 POP JUMP JUMPDEST PUSH0 PUSH2 0x38A PUSH2 0x385 PUSH2 0x380 DUP5 PUSH2 0x35E JUMP JUMPDEST PUSH2 0x367 JUMP JUMPDEST PUSH2 0x35E JUMP JUMPDEST SWAP1 POP SWAP2 SWAP1 POP JUMP JUMPDEST PUSH0 DUP2 SWAP1 POP SWAP2 SWAP1 POP JUMP JUMPDEST PUSH2 0x3A3 DUP4 PUSH2 0x370 JUMP JUMPDEST PUSH2 0x3B7 PUSH2 0x3AF DUP3 PUSH2 0x391 JUMP JUMPDEST DUP5 DUP5 SLOAD PUSH2 0x30D JUMP JUMPDEST DUP3 SSTORE POP POP POP POP JUMP JUMPDEST PUSH0 SWAP1 JUMP JUMPDEST PUSH2 0x3CB PUSH2 0x3BF JUMP JUMPDEST PUSH2 0x3D6 DUP2 DUP5 DUP5 PUSH2 0x39A JUMP JUMPDEST POP POP POP JUMP JUMPDEST JUMPDEST DUP2 DUP2 LT ISZERO PUSH2 0x3F9 JUMPI PUSH2 0x3EE PUSH0 DUP3 PUSH2 0x3C3 JUMP JUMPDEST PUSH1 0x1 DUP2 ADD SWAP1 POP PUSH2 0x3DC JUMP JUMPDEST POP POP JUMP JUMPDEST PUSH1 0x1F DUP3 GT ISZERO PUSH2 0x43E JUMPI PUSH2 0x40F DUP2 PUSH2 0x2E0 JUMP JUMPDEST PUSH2 0x418 DUP5 PUSH2 0x2F2 JUMP JUMPDEST DUP2 ADD PUSH1 0x20 DUP6 LT ISZERO PUSH2 0x427 JUMPI DUP2 SWAP1 POP JUMPDEST PUSH2 0x43B PUSH2 0x433 DUP6 PUSH2 0x2F2 JUMP JUMPDEST DUP4 ADD DUP3 PUSH2 0x3DB JUMP JUMPDEST POP POP JUMPDEST POP POP POP JUMP JUMPDEST PUSH0 DUP3 DUP3 SHR SWAP1 POP SWAP3 SWAP2 POP POP JUMP JUMPDEST PUSH0 PUSH2 0x45E PUSH0 NOT DUP5 PUSH1 0x8 MUL PUSH2 0x443 JUMP JUMPDEST NOT DUP1 DUP4 AND SWAP2 POP POP SWAP3 SWAP2 POP POP JUMP JUMPDEST PUSH0 PUSH2 0x476 DUP4 DUP4 PUSH2 0x44F JUMP JUMPDEST SWAP2 POP DUP3 PUSH1 0x2 MUL DUP3 OR SWAP1 POP SWAP3 SWAP2 POP POP JUMP JUMPDEST PUSH2 0x48F DUP3 PUSH2 0x24C JUMP JUMPDEST PUSH8 0xFFFFFFFFFFFFFFFF DUP2 GT ISZERO PUSH2 0x4A8 JUMPI PUSH2 0x4A7 PUSH2 0x256 JUMP JUMPDEST JUMPDEST PUSH2 0x4B2 DUP3 SLOAD PUSH2 0x2B0 JUMP JUMPDEST PUSH2 0x4BD DUP3 DUP3 DUP6 PUSH2 0x3FD JUMP JUMPDEST PUSH0 PUSH1 0x20 SWAP1 POP PUSH1 0x1F DUP4 GT PUSH1 0x1 DUP2 EQ PUSH2 0x4EE JUMPI PUSH0 DUP5 ISZERO PUSH2 0x4DC JUMPI DUP3 DUP8 ADD MLOAD SWAP1 POP JUMPDEST PUSH2 0x4E6 DUP6 DUP3 PUSH2 0x46B JUMP JUMPDEST DUP7 SSTORE POP PUSH2 0x54D JUMP JUMPDEST PUSH1 0x1F NOT DUP5 AND PUSH2 0x4FC DUP7 PUSH2 0x2E0 JUMP JUMPDEST PUSH0 JUMPDEST DUP3 DUP2 LT ISZERO PUSH2 0x523 JUMPI DUP5 DUP10 ADD MLOAD DUP3 SSTORE PUSH1 0x1 DUP3 ADD SWAP2 POP PUSH1 0x20 DUP6 ADD SWAP5 POP PUSH1 0x20 DUP2 ADD SWAP1 POP PUSH2 0x4FE JUMP JUMPDEST DUP7 DUP4 LT ISZERO PUSH2 0x540 JUMPI DUP5 DUP10 ADD MLOAD PUSH2 0x53C PUSH1 0x1F DUP10 AND DUP3 PUSH2 0x44F JUMP JUMPDEST DUP4 SSTORE POP JUMPDEST PUSH1 0x1 PUSH1 0x2 DUP9 MUL ADD DUP9 SSTORE POP POP POP JUMPDEST POP POP POP POP POP POP JUMP JUMPDEST PUSH2 0xAEB DUP1 PUSH2 0x562 PUSH0 CODECOPY PUSH0 RETURN INVALID PUSH1 0x80 PUSH1 0x40 MSTORE CALLVALUE DUP1 ISZERO PUSH2 0xF JUMPI PUSH0 DUP1 REVERT JUMPDEST POP PUSH1 0x4 CALLDATASIZE LT PUSH2 0x7B JUMPI PUSH0 CALLDATALOAD PUSH1 0xE0 SHR DUP1 PUSH4 0x990DF3B4 GT PUSH2 0x59 JUMPI DUP1 PUSH4 0x990DF3B4 EQ PUSH2 0xFD JUMPI DUP1 PUSH4 0xC19D93FB EQ PUSH2 0x11B JUMPI DUP1 PUSH4 0xC47F0027 EQ PUSH2 0x139 JUMPI DUP1 PUSH4 0xF3E076B2 EQ PUSH2 0x155 JUMPI PUSH2 0x7B JUMP JUMPDEST DUP1 PUSH4 0x2F259A34 EQ PUSH2 0x7F JUMPI DUP1 PUSH4 0x5C3EE206 EQ PUSH2 0xAF JUMPI DUP1 PUSH4 0x771602F7 EQ PUSH2 0xCD JUMPI JUMPDEST PUSH0 DUP1 REVERT JUMPDEST PUSH2 0x99 PUSH1 0x4 DUP1 CALLDATASIZE SUB DUP2 ADD SWAP1 PUSH2 0x94 SWAP2 SWAP1 PUSH2 0x42F JUMP JUMPDEST PUSH2 0x173 JUMP JUMPDEST PUSH1 0x40 MLOAD PUSH2 0xA6 SWAP2 SWAP1 PUSH2 0x47C JUMP JUMPDEST PUSH1 0x40 MLOAD DUP1 SWAP2 SUB SWAP1 RETURN JUMPDEST PUSH2 0xB7 PUSH2 0x1C4 JUMP JUMPDEST PUSH1 0x40 MLOAD PUSH2 0xC4 SWAP2 SWAP1 PUSH2 0x505 JUMP JUMPDEST PUSH1 0x40 MLOAD DUP1 SWAP2 SUB SWAP1 RETURN JUMPDEST PUSH2 0xE7 PUSH1 0x4 DUP1 CALLDATASIZE SUB DUP2 ADD SWAP1 PUSH2 0xE2 SWAP2 SWAP1 PUSH2 0x42F JUMP JUMPDEST PUSH2 0x254 JUMP JUMPDEST PUSH1 0x40 MLOAD PUSH2 0xF4 SWAP2 SWAP1 PUSH2 0x47C JUMP JUMPDEST PUSH1 0x40 MLOAD DUP1 SWAP2 SUB SWAP1 RETURN JUMPDEST PUSH2 0x105 PUSH2 0x269 JUMP JUMPDEST PUSH1 0x40 MLOAD PUSH2 0x112 SWAP2 SWAP1 PUSH2 0x505 JUMP JUMPDEST PUSH1 0x40 MLOAD DUP1 SWAP2 SUB SWAP1 RETURN JUMPDEST PUSH2 0x123 PUSH2 0x389 JUMP JUMPDEST PUSH1 0x40 MLOAD PUSH2 0x130 SWAP2 SWAP1 PUSH2 0x598 JUMP JUMPDEST PUSH1 0x40 MLOAD DUP1 SWAP2 SUB SWAP1 RETURN JUMPDEST PUSH2 0x153 PUSH1 0x4 DUP1 CALLDATASIZE SUB DUP2 ADD SWAP1 PUSH2 0x14E SWAP2 SWAP1 PUSH2 0x6DD JUMP JUMPDEST PUSH2 0x39B JUMP JUMPDEST STOP JUMPDEST PUSH2 0x15D PUSH2 0x3AE JUMP JUMPDEST PUSH1 0x40 MLOAD PUSH2 0x16A SWAP2 SWAP1 PUSH2 0x505 JUMP JUMPDEST PUSH1 0x40 MLOAD DUP1 SWAP2 SUB SWAP1 RETURN JUMPDEST PUSH0 DUP1 DUP3 DUP5 PUSH2 0x181 SWAP2 SWAP1 PUSH2 0x751 JUMP JUMPDEST SWAP1 POP PUSH32 0x64A55044D1F2EDDEBE1B90E8E2853E8E96931CEFADBFA0B2CEB34BEE36061941 DUP2 PUSH1 0x40 MLOAD PUSH2 0x1B2 SWAP2 SWAP1 PUSH2 0x47C JUMP JUMPDEST PUSH1 0x40 MLOAD DUP1 SWAP2 SUB SWAP1 LOG1 DUP1 SWAP2 POP POP SWAP3 SWAP2 POP POP JUMP JUMPDEST PUSH1 0x60 PUSH1 0x7 DUP1 SLOAD PUSH2 0x1D3 SWAP1 PUSH2 0x7B1 JUMP JUMPDEST DUP1 PUSH1 0x1F ADD PUSH1 0x20 DUP1 SWAP2 DIV MUL PUSH1 0x20 ADD PUSH1 0x40 MLOAD SWAP1 DUP2 ADD PUSH1 0x40 MSTORE DUP1 SWAP3 SWAP2 SWAP1 DUP2 DUP2 MSTORE PUSH1 0x20 ADD DUP3 DUP1 SLOAD PUSH2 0x1FF SWAP1 PUSH2 0x7B1 JUMP JUMPDEST DUP1 ISZERO PUSH2 0x24A JUMPI DUP1 PUSH1 0x1F LT PUSH2 0x221 JUMPI PUSH2 0x100 DUP1 DUP4 SLOAD DIV MUL DUP4 MSTORE SWAP2 PUSH1 0x20 ADD SWAP2 PUSH2 0x24A JUMP JUMPDEST DUP3 ADD SWAP2 SWAP1 PUSH0 MSTORE PUSH1 0x20 PUSH0 KECCAK256 SWAP1 JUMPDEST DUP2 SLOAD DUP2 MSTORE SWAP1 PUSH1 0x1 ADD SWAP1 PUSH1 0x20 ADD DUP1 DUP4 GT PUSH2 0x22D JUMPI DUP3 SWAP1 SUB PUSH1 0x1F AND DUP3 ADD SWAP2 JUMPDEST POP POP POP POP POP SWAP1 POP SWAP1 JUMP JUMPDEST PUSH0 DUP2 DUP4 PUSH2 0x261 SWAP2 SWAP1 PUSH2 0x751 JUMP JUMPDEST SWAP1 POP SWAP3 SWAP2 POP POP JUMP JUMPDEST PUSH1 0x60 PUSH1 0x4 PUSH1 0x2 SWAP1 SLOAD SWAP1 PUSH2 0x100 EXP SWAP1 DIV PUSH20 0xFFFFFFFFFFFFFFFFFFFFFFFFFFFFFFFFFFFFFFFF AND PUSH20 0xFFFFFFFFFFFFFFFFFFFFFFFFFFFFFFFFFFFFFFFF AND CALLER PUSH20 0xFFFFFFFFFFFFFFFFFFFFFFFFFFFFFFFFFFFFFFFF AND EQ PUSH2 0x2FB JUMPI PUSH1 0x40 MLOAD PUSH32 0x8C379A000000000000000000000000000000000000000000000000000000000 DUP2 MSTORE PUSH1 0x4 ADD PUSH2 0x2F2 SWAP1 PUSH2 0x82B JUMP JUMPDEST PUSH1 0x40 MLOAD DUP1 SWAP2 SUB SWAP1 REVERT JUMPDEST PUSH1 0x7 DUP1 SLOAD PUSH2 0x308 SWAP1 PUSH2 0x7B1 JUMP JUMPDEST DUP1 PUSH1 0x1F ADD PUSH1 0x20 DUP1 SWAP2 DIV MUL PUSH1 0x20 ADD PUSH1 0x40 MLOAD SWAP1 DUP2 ADD PUSH1 0x40 MSTORE DUP1 SWAP3 SWAP2 SWAP1 DUP2 DUP2 MSTORE PUSH1 0x20 ADD DUP3 DUP1 SLOAD PUSH2 0x334 SWAP1 PUSH2 0x7B1 JUMP JUMPDEST DUP1 ISZERO PUSH2 0x37F JUMPI DUP1 PUSH1 0x1F LT PUSH2 0x356 JUMPI PUSH2 0x100 DUP1 DUP4 SLOAD DIV MUL DUP4 MSTORE SWAP2 PUSH1 0x20 ADD SWAP2 PUSH2 0x37F JUMP JUMPDEST DUP3 ADD SWAP2 SWAP1 PUSH0 MSTORE PUSH1 0x20 PUSH0 KECCAK256 SWAP1 JUMPDEST DUP2 SLOAD DUP2 MSTORE SWAP1 PUSH1 0x1 ADD SWAP1 PUSH1 0x20 ADD DUP1 DUP4 GT PUSH2 0x362 JUMPI DUP3 SWAP1 SUB PUSH1 0x1F AND DUP3 ADD SWAP2 JUMPDEST POP POP POP POP POP SWAP1 POP SWAP1 JUMP JUMPDEST PUSH1 0x8 PUSH0 SWAP1 SLOAD SWAP1 PUSH2 0x100 EXP SWAP1 DIV PUSH1 0xFF AND DUP2 JUMP JUMPDEST DUP1 PUSH1 0x7 SWAP1 DUP2 PUSH2 0x3AA SWAP2 SWAP1 PUSH2 0x9E6 JUMP JUMPDEST POP POP JUMP JUMPDEST PUSH1 0x60 PUSH1 0x40 MLOAD DUP1 PUSH1 0x40 ADD PUSH1 0x40 MSTORE DUP1 PUSH1 0xD DUP2 MSTORE PUSH1 0x20 ADD PUSH32 0x48656C6C6F2C20576F726C642100000000000000000000000000000000000000 DUP2 MSTORE POP SWAP1 POP SWAP1 JUMP JUMPDEST PUSH0 PUSH1 0x40 MLOAD SWAP1 POP SWAP1 JUMP JUMPDEST PUSH0 DUP1 REVERT JUMPDEST PUSH0 DUP1 REVERT JUMPDEST PUSH0 DUP2 SWAP1 POP SWAP2 SWAP1 POP JUMP JUMPDEST PUSH2 0x40E DUP2 PUSH2 0x3FC JUMP JUMPDEST DUP2 EQ PUSH2 0x418 JUMPI PUSH0 DUP1 REVERT JUMPDEST POP JUMP JUMPDEST PUSH0 DUP2 CALLDATALOAD SWAP1 POP PUSH2 0x429 DUP2 PUSH2 0x405 JUMP JUMPDEST SWAP3 SWAP2 POP POP JUMP JUMPDEST PUSH0 DUP1 PUSH1 0x40 DUP4 DUP6 SUB SLT ISZERO PUSH2 0x445 JUMPI PUSH2 0x444 PUSH2 0x3F4 JUMP JUMPDEST JUMPDEST PUSH0 PUSH2 0x452 DUP6 DUP3 DUP7 ADD PUSH2 0x41B JUMP JUMPDEST SWAP3 POP POP PUSH1 0x20 PUSH2 0x463 DUP6 DUP3 DUP7 ADD PUSH2 0x41B JUMP JUMPDEST SWAP2 POP POP SWAP3 POP SWAP3 SWAP1 POP JUMP JUMPDEST PUSH2 0x476 DUP2 PUSH2 0x3FC JUMP JUMPDEST DUP3 MSTORE POP POP JUMP JUMPDEST PUSH0 PUSH1 0x20 DUP3 ADD SWAP1 POP PUSH2 0x48F PUSH0 DUP4 ADD DUP5 PUSH2 0x46D JUMP JUMPDEST SWAP3 SWAP2 POP POP JUMP JUMPDEST PUSH0 DUP2 MLOAD SWAP1 POP SWAP2 SWAP1 POP JUMP JUMPDEST PUSH0 DUP3 DUP3 MSTORE PUSH1 0x20 DUP3 ADD SWAP1 POP SWAP3 SWAP2 POP POP JUMP JUMPDEST DUP3 DUP2 DUP4 MCOPY PUSH0 DUP4 DUP4 ADD MSTORE POP POP POP JUMP JUMPDEST PUSH0 PUSH1 0x1F NOT PUSH1 0x1F DUP4 ADD AND SWAP1 POP SWAP2 SWAP1 POP JUMP JUMPDEST PUSH0 PUSH2 0x4D7 DUP3 PUSH2 0x495 JUMP JUMPDEST PUSH2 0x4E1 DUP2 DUP6 PUSH2 0x49F JUMP JUMPDEST SWAP4 POP PUSH2 0x4F1 DUP2 DUP6 PUSH1 0x20 DUP7 ADD PUSH2 0x4AF JUMP JUMPDEST PUSH2 0x4FA DUP2 PUSH2 0x4BD JUMP JUMPDEST DUP5 ADD SWAP2 POP POP SWAP3 SWAP2 POP POP JUMP JUMPDEST PUSH0 PUSH1 0x20 DUP3 ADD SWAP1 POP DUP2 DUP2 SUB PUSH0 DUP4 ADD MSTORE PUSH2 0x51D DUP2 DUP5 PUSH2 0x4CD JUMP JUMPDEST SWAP1 POP SWAP3 SWAP2 POP POP JUMP JUMPDEST PUSH32 0x4E487B7100000000000000000000000000000000000000000000000000000000 PUSH0 MSTORE PUSH1 0x21 PUSH1 0x4 MSTORE PUSH1 0x24 PUSH0 REVERT JUMPDEST PUSH1 0x3 DUP2 LT PUSH2 0x563 JUMPI PUSH2 0x562 PUSH2 0x525 JUMP JUMPDEST JUMPDEST POP JUMP JUMPDEST PUSH0 DUP2 SWAP1 POP PUSH2 0x573 DUP3 PUSH2 0x552 JUMP JUMPDEST SWAP2 SWAP1 POP JUMP JUMPDEST PUSH0 PUSH2 0x582 DUP3 PUSH2 0x566 JUMP JUMPDEST SWAP1 POP SWAP2 SWAP1 POP JUMP JUMPDEST PUSH2 0x592 DUP2 PUSH2 0x578 JUMP JUMPDEST DUP3 MSTORE POP POP JUMP JUMPDEST PUSH0 PUSH1 0x20 DUP3 ADD SWAP1 POP PUSH2 0x5AB PUSH0 DUP4 ADD DUP5 PUSH2 0x589 JUMP JUMPDEST SWAP3 SWAP2 POP POP JUMP JUMPDEST PUSH0 DUP1 REVERT JUMPDEST PUSH0 DUP1 REVERT JUMPDEST PUSH32 0x4E487B7100000000000000000000000000000000000000000000000000000000 PUSH0 MSTORE PUSH1 0x41 PUSH1 0x4 MSTORE PUSH1 0x24 PUSH0 REVERT JUMPDEST PUSH2 0x5EF DUP3 PUSH2 0x4BD JUMP JUMPDEST DUP2 ADD DUP2 DUP2 LT PUSH8 0xFFFFFFFFFFFFFFFF DUP3 GT OR ISZERO PUSH2 0x60E JUMPI PUSH2 0x60D PUSH2 0x5B9 JUMP JUMPDEST JUMPDEST DUP1 PUSH1 0x40 MSTORE POP POP POP JUMP JUMPDEST PUSH0 PUSH2 0x620 PUSH2 0x3EB JUMP JUMPDEST SWAP1 POP PUSH2 0x62C DUP3 DUP3 PUSH2 0x5E6 JUMP JUMPDEST SWAP2 SWAP1 POP JUMP JUMPDEST PUSH0 PUSH8 0xFFFFFFFFFFFFFFFF DUP3 GT ISZERO PUSH2 0x64B JUMPI PUSH2 0x64A PUSH2 0x5B9 JUMP JUMPDEST JUMPDEST PUSH2 0x654 DUP3 PUSH2 0x4BD JUMP JUMPDEST SWAP1 POP PUSH1 0x20 DUP2 ADD SWAP1 POP SWAP2 SWAP1 POP JUMP JUMPDEST DUP3 DUP2 DUP4 CALLDATACOPY PUSH0 DUP4 DUP4 ADD MSTORE POP POP POP JUMP JUMPDEST PUSH0 PUSH2 0x681 PUSH2 0x67C DUP5 PUSH2 0x631 JUMP JUMPDEST PUSH2 0x617 JUMP JUMPDEST SWAP1 POP DUP3 DUP2 MSTORE PUSH1 0x20 DUP2 ADD DUP5 DUP5 DUP5 ADD GT ISZERO PUSH2 0x69D JUMPI PUSH2 0x69C PUSH2 0x5B5 JUMP JUMPDEST JUMPDEST PUSH2 0x6A8 DUP5 DUP3 DUP6 PUSH2 0x661 JUMP JUMPDEST POP SWAP4 SWAP3 POP POP POP JUMP JUMPDEST PUSH0 DUP3 PUSH1 0x1F DUP4 ADD SLT PUSH2 0x6C4 JUMPI PUSH2 0x6C3 PUSH2 0x5B1 JUMP JUMPDEST JUMPDEST DUP2 CALLDATALOAD PUSH2 0x6D4 DUP5 DUP3 PUSH1 0x20 DUP7 ADD PUSH2 0x66F JUMP JUMPDEST SWAP2 POP POP SWAP3 SWAP2 POP POP JUMP JUMPDEST PUSH0 PUSH1 0x20 DUP3 DUP5 SUB SLT ISZERO PUSH2 0x6F2 JUMPI PUSH2 0x6F1 PUSH2 0x3F4 JUMP JUMPDEST JUMPDEST PUSH0 DUP3 ADD CALLDATALOAD PUSH8 0xFFFFFFFFFFFFFFFF DUP2 GT ISZERO PUSH2 0x70F JUMPI PUSH2 0x70E PUSH2 0x3F8 JUMP JUMPDEST JUMPDEST PUSH2 0x71B DUP5 DUP3 DUP6 ADD PUSH2 0x6B0 JUMP JUMPDEST SWAP2 POP POP SWAP3 SWAP2 POP POP JUMP JUMPDEST PUSH32 0x4E487B7100000000000000000000000000000000000000000000000000000000 PUSH0 MSTORE PUSH1 0x11 PUSH1 0x4 MSTORE PUSH1 0x24 PUSH0 REVERT JUMPDEST PUSH0 PUSH2 0x75B DUP3 PUSH2 0x3FC JUMP JUMPDEST SWAP2 POP PUSH2 0x766 DUP4 PUSH2 0x3FC JUMP JUMPDEST SWAP3 POP DUP3 DUP3 ADD SWAP1 POP DUP1 DUP3 GT ISZERO PUSH2 0x77E JUMPI PUSH2 0x77D PUSH2 0x724 JUMP JUMPDEST JUMPDEST SWAP3 SWAP2 POP POP JUMP JUMPDEST PUSH32 0x4E487B7100000000000000000000000000000000000000000000000000000000 PUSH0 MSTORE PUSH1 0x22 PUSH1 0x4 MSTORE PUSH1 0x24 PUSH0 REVERT JUMPDEST PUSH0 PUSH1 0x2 DUP3 DIV SWAP1 POP PUSH1 0x1 DUP3 AND DUP1 PUSH2 0x7C8 JUMPI PUSH1 0x7F DUP3 AND SWAP2 POP JUMPDEST PUSH1 0x20 DUP3 LT DUP2 SUB PUSH2 0x7DB JUMPI PUSH2 0x7DA PUSH2 0x784 JUMP JUMPDEST JUMPDEST POP SWAP2 SWAP1 POP JUMP JUMPDEST PUSH32 0x4E6F742074686520636F6E7472616374206F776E657200000000000000000000 PUSH0 DUP3 ADD MSTORE POP JUMP JUMPDEST PUSH0 PUSH2 0x815 PUSH1 0x16 DUP4 PUSH2 0x49F JUMP JUMPDEST SWAP2 POP PUSH2 0x820 DUP3 PUSH2 0x7E1 JUMP JUMPDEST PUSH1 0x20 DUP3 ADD SWAP1 POP SWAP2 SWAP1 POP JUMP JUMPDEST PUSH0 PUSH1 0x20 DUP3 ADD SWAP1 POP DUP2 DUP2 SUB PUSH0 DUP4 ADD MSTORE PUSH2 0x842 DUP2 PUSH2 0x809 JUMP JUMPDEST SWAP1 POP SWAP2 SWAP1 POP JUMP JUMPDEST PUSH0 DUP2 SWAP1 POP DUP2 PUSH0 MSTORE PUSH1 0x20 PUSH0 KECCAK256 SWAP1 POP SWAP2 SWAP1 POP JUMP JUMPDEST PUSH0 PUSH1 0x20 PUSH1 0x1F DUP4 ADD DIV SWAP1 POP SWAP2 SWAP1 POP JUMP JUMPDEST PUSH0 DUP3 DUP3 SHL SWAP1 POP SWAP3 SWAP2 POP POP JUMP JUMPDEST PUSH0 PUSH1 0x8 DUP4 MUL PUSH2 0x8A5 PUSH32 0xFFFFFFFFFFFFFFFFFFFFFFFFFFFFFFFFFFFFFFFFFFFFFFFFFFFFFFFFFFFFFFFF DUP3 PUSH2 0x86A JUMP JUMPDEST PUSH2 0x8AF DUP7 DUP4 PUSH2 0x86A JUMP JUMPDEST SWAP6 POP DUP1 NOT DUP5 AND SWAP4 POP DUP1 DUP7 AND DUP5 OR SWAP3 POP POP POP SWAP4 SWAP3 POP POP POP JUMP JUMPDEST PUSH0 DUP2 SWAP1 POP SWAP2 SWAP1 POP JUMP JUMPDEST PUSH0 PUSH2 0x8EA PUSH2 0x8E5 PUSH2 0x8E0 DUP5 PUSH2 0x3FC JUMP JUMPDEST PUSH2 0x8C7 JUMP JUMPDEST PUSH2 0x3FC JUMP JUMPDEST SWAP1 POP SWAP2 SWAP1 POP JUMP JUMPDEST PUSH0 DUP2 SWAP1 POP SWAP2 SWAP1 POP JUMP JUMPDEST PUSH2 0x903 DUP4 PUSH2 0x8D0 JUMP JUMPDEST PUSH2 0x917 PUSH2 0x90F DUP3 PUSH2 0x8F1 JUMP JUMPDEST DUP5 DUP5 SLOAD PUSH2 0x876 JUMP JUMPDEST DUP3 SSTORE POP POP POP POP JUMP JUMPDEST PUSH0 SWAP1 JUMP JUMPDEST PUSH2 0x92B PUSH2 0x91F JUMP JUMPDEST PUSH2 0x936 DUP2 DUP5 DUP5 PUSH2 0x8FA JUMP JUMPDEST POP POP POP JUMP JUMPDEST JUMPDEST DUP2 DUP2 LT ISZERO PUSH2 0x959 JUMPI PUSH2 0x94E PUSH0 DUP3 PUSH2 0x923 JUMP JUMPDEST PUSH1 0x1 DUP2 ADD SWAP1 POP PUSH2 0x93C JUMP JUMPDEST POP POP JUMP JUMPDEST PUSH1 0x1F DUP3 GT ISZERO PUSH2 0x99E JUMPI PUSH2 0x96F DUP2 PUSH2 0x849 JUMP JUMPDEST PUSH2 0x978 DUP5 PUSH2 0x85B JUMP JUMPDEST DUP2 ADD PUSH1 0x20 DUP6 LT ISZERO PUSH2 0x987 JUMPI DUP2 SWAP1 POP JUMPDEST PUSH2 0x99B PUSH2 0x993 DUP6 PUSH2 0x85B JUMP JUMPDEST DUP4 ADD DUP3 PUSH2 0x93B JUMP JUMPDEST POP POP JUMPDEST POP POP POP JUMP JUMPDEST PUSH0 DUP3 DUP3 SHR SWAP1 POP SWAP3 SWAP2 POP POP JUMP JUMPDEST PUSH0 PUSH2 0x9BE PUSH0 NOT DUP5 PUSH1 0x8 MUL PUSH2 0x9A3 JUMP JUMPDEST NOT DUP1 DUP4 AND SWAP2 POP POP SWAP3 SWAP2 POP POP JUMP JUMPDEST PUSH0 PUSH2 0x9D6 DUP4 DUP4 PUSH2 0x9AF JUMP JUMPDEST SWAP2 POP DUP3 PUSH1 0x2 MUL DUP3 OR SWAP1 POP SWAP3 SWAP2 POP POP JUMP JUMPDEST PUSH2 0x9EF DUP3 PUSH2 0x495 JUMP JUMPDEST PUSH8 0xFFFFFFFFFFFFFFFF DUP2 GT ISZERO PUSH2 0xA08 JUMPI PUSH2 0xA07 PUSH2 0x5B9 JUMP JUMPDEST JUMPDEST PUSH2 0xA12 DUP3 SLOAD PUSH2 0x7B1 JUMP JUMPDEST PUSH2 0xA1D DUP3 DUP3 DUP6 PUSH2 0x95D JUMP JUMPDEST PUSH0 PUSH1 0x20 SWAP1 POP PUSH1 0x1F DUP4 GT PUSH1 0x1 DUP2 EQ PUSH2 0xA4E JUMPI PUSH0 DUP5 ISZERO PUSH2 0xA3C JUMPI DUP3 DUP8 ADD MLOAD SWAP1 POP JUMPDEST PUSH2 0xA46 DUP6 DUP3 PUSH2 0x9CB JUMP JUMPDEST DUP7 SSTORE POP PUSH2 0xAAD JUMP JUMPDEST PUSH1 0x1F NOT DUP5 AND PUSH2 0xA5C DUP7 PUSH2 0x849 JUMP JUMPDEST PUSH0 JUMPDEST DUP3 DUP2 LT ISZERO PUSH2 0xA83 JUMPI DUP5 DUP10 ADD MLOAD DUP3 SSTORE PUSH1 0x1 DUP3 ADD SWAP2 POP PUSH1 0x20 DUP6 ADD SWAP5 POP PUSH1 0x20 DUP2 ADD SWAP1 POP PUSH2 0xA5E JUMP JUMPDEST DUP7 DUP4 LT ISZERO PUSH2 0xAA0 JUMPI DUP5 DUP10 ADD MLOAD PUSH2 0xA9C PUSH1 0x1F DUP10 AND DUP3 PUSH2 0x9AF JUMP JUMPDEST DUP4 SSTORE POP JUMPDEST PUSH1 0x1 PUSH1 0x2 DUP9 MUL ADD DUP9 SSTORE POP POP POP JUMPDEST POP POP POP POP POP POP JUMP INVALID LOG2 PUSH5 0x6970667358 0x22 SLT KECCAK256 MUL SWAP14 GASLIMIT 0x26 DUP4 PUSH10 0x3E4B8CE3689A05EA6345 MOD 0xC5 JUMPI SDIV SWAP6 0xD3 SWAP10 0xE3 0xAF 0x2C 0x22 GASLIMIT 0x2A PUSH15 0xA23664736F6C634300081A00330000 "
				},
				"gasEstimates": {
					"creation": {
						"codeDepositCost": "559000",
						"executionCost": "infinite",
						"totalCost": "infinite"
					},
					"external": {
						"add(uint256,uint256)": "infinite",
						"addWithEvent(uint256,uint256)": "infinite",
						"getGreetingPure()": "infinite",
						"getNameView()": "infinite",
						"getNameViewOnlyOwner()": "infinite",
						"setName(string)": "infinite",
						"state()": "2576"
					}
				},
				"methodIdentifiers": {
					"add(uint256,uint256)": "771602f7",
					"addWithEvent(uint256,uint256)": "2f259a34",
					"getGreetingPure()": "f3e076b2",
					"getNameView()": "5c3ee206",
					"getNameViewOnlyOwner()": "990df3b4",
					"setName(string)": "c47f0027",
					"state()": "c19d93fb"
				}
			},
			"storageLayout": {
				"storage": [
					{
						"astId": 4,
						"contract": "contracts/Variables.sol:Variables",
						"label": "a",
						"offset": 0,
						"slot": "0",
						"type": "t_uint8"
					},
					{
						"astId": 7,
						"contract": "contracts/Variables.sol:Variables",
						"label": "b",
						"offset": 1,
						"slot": "0",
						"type": "t_uint16"
					},
					{
						"astId": 10,
						"contract": "contracts/Variables.sol:Variables",
						"label": "c",
						"offset": 0,
						"slot": "1",
						"type": "t_uint256"
					},
					{
						"astId": 14,
						"contract": "contracts/Variables.sol:Variables",
						"label": "d",
						"offset": 0,
						"slot": "2",
						"type": "t_int8"
					},
					{
						"astId": 17,
						"contract": "contracts/Variables.sol:Variables",
						"label": "e",
						"offset": 1,
						"slot": "2",
						"type": "t_int16"
					},
					{
						"astId": 21,
						"contract": "contracts/Variables.sol:Variables",
						"label": "f",
						"offset": 0,
						"slot": "3",
						"type": "t_int256"
					},
					{
						"astId": 24,
						"contract": "contracts/Variables.sol:Variables",
						"label": "isReady",
						"offset": 0,
						"slot": "4",
						"type": "t_bool"
					},
					{
						"astId": 27,
						"contract": "contracts/Variables.sol:Variables",
						"label": "hasBalance",
						"offset": 1,
						"slot": "4",
						"type": "t_bool"
					},
					{
						"astId": 30,
						"contract": "contracts/Variables.sol:Variables",
						"label": "owner",
						"offset": 2,
						"slot": "4",
						"type": "t_address"
					},
					{
						"astId": 36,
						"contract": "contracts/Variables.sol:Variables",
						"label": "payableOwner",
						"offset": 0,
						"slot": "5",
						"type": "t_address_payable"
					},
					{
						"astId": 39,
						"contract": "contracts/Variables.sol:Variables",
						"label": "greeting",
						"offset": 0,
						"slot": "6",
						"type": "t_string_storage"
					},
					{
						"astId": 42,
						"contract": "contracts/Variables.sol:Variables",
						"label": "name",
						"offset": 0,
						"slot": "7",
						"type": "t_string_storage"
					},
					{
						"astId": 49,
						"contract": "contracts/Variables.sol:Variables",
						"label": "state",
						"offset": 0,
						"slot": "8",
						"type": "t_enum(State)46"
					}
				],
				"types": {
					"t_address": {
						"encoding": "inplace",
						"label": "address",
						"numberOfBytes": "20"
					},
					"t_address_payable": {
						"encoding": "inplace",
						"label": "address payable",
						"numberOfBytes": "20"
					},
					"t_bool": {
						"encoding": "inplace",
						"label": "bool",
						"numberOfBytes": "1"
					},
					"t_enum(State)46": {
						"encoding": "inplace",
						"label": "enum Variables.State",
						"numberOfBytes": "1"
					},
					"t_int16": {
						"encoding": "inplace",
						"label": "int16",
						"numberOfBytes": "2"
					},
					"t_int256": {
						"encoding": "inplace",
						"label": "int256",
						"numberOfBytes": "32"
					},
					"t_int8": {
						"encoding": "inplace",
						"label": "int8",
						"numberOfBytes": "1"
					},
					"t_string_storage": {
						"encoding": "bytes",
						"label": "string",
						"numberOfBytes": "32"
					},
					"t_uint16": {
						"encoding": "inplace",
						"label": "uint16",
						"numberOfBytes": "2"
					},
					"t_uint256": {
						"encoding": "inplace",
						"label": "uint256",
						"numberOfBytes": "32"
					},
					"t_uint8": {
						"encoding": "inplace",
						"label": "uint8",
						"numberOfBytes": "1"
					}
				}
			},
			"userdoc": {
				"kind": "user",
				"methods": {},
				"version": 1
			}
		}
	}
}